{
  "contracts/Identity.sol": {
    "Identity": {
      "abi": [
        {
          "inputs": [
            {
              "internalType": "string",
              "name": "userName",
              "type": "string"
            },
            {
              "components": [
                {
                  "internalType": "string",
                  "name": "firstName",
                  "type": "string"
                },
                {
                  "internalType": "string",
                  "name": "lastName",
                  "type": "string"
                },
                {
                  "internalType": "string",
                  "name": "userName",
                  "type": "string"
                },
                {
                  "internalType": "string",
                  "name": "email",
                  "type": "string"
                },
                {
                  "internalType": "string",
                  "name": "homeAddress",
                  "type": "string"
                },
                {
                  "internalType": "string",
                  "name": "phoneNumber",
                  "type": "string"
                },
                {
                  "internalType": "string",
                  "name": "dateOfBirth",
                  "type": "string"
                }
              ],
              "internalType": "struct Identity.BasicInfo",
              "name": "basicInfo",
              "type": "tuple"
            },
            {
              "components": [
                {
                  "internalType": "string",
                  "name": "education",
                  "type": "string"
                },
                {
                  "internalType": "string",
                  "name": "workHistory",
                  "type": "string"
                },
                {
                  "internalType": "string",
                  "name": "jobTitle",
                  "type": "string"
                },
                {
                  "internalType": "string",
                  "name": "info",
                  "type": "string"
                },
                {
                  "internalType": "string[]",
                  "name": "skills",
                  "type": "string[]"
                },
                {
                  "internalType": "string",
                  "name": "imageUrl",
                  "type": "string"
                }
              ],
              "internalType": "struct Identity.ProfessionalInfo",
              "name": "professionalInfo",
              "type": "tuple"
            },
            {
              "components": [
                {
                  "internalType": "string",
                  "name": "x",
                  "type": "string"
                },
                {
                  "internalType": "string",
                  "name": "tiktok",
                  "type": "string"
                },
                {
                  "internalType": "string",
                  "name": "instargram",
                  "type": "string"
                },
                {
                  "internalType": "string",
                  "name": "youtube",
                  "type": "string"
                },
                {
                  "internalType": "string",
                  "name": "linkedin",
                  "type": "string"
                }
              ],
              "internalType": "struct Identity.SocialLinks",
              "name": "socialLinks",
              "type": "tuple"
            },
            {
              "components": [
                {
                  "internalType": "bool",
                  "name": "education",
                  "type": "bool"
                },
                {
                  "internalType": "bool",
                  "name": "workHistory",
                  "type": "bool"
                },
                {
                  "internalType": "bool",
                  "name": "phoneNumber",
                  "type": "bool"
                },
                {
                  "internalType": "bool",
                  "name": "homeAddress",
                  "type": "bool"
                },
                {
                  "internalType": "bool",
                  "name": "dateOfBirth",
                  "type": "bool"
                }
              ],
              "internalType": "struct Identity.Visibility",
              "name": "visibility",
              "type": "tuple"
            }
          ],
          "name": "createUser",
          "outputs": [],
          "stateMutability": "nonpayable",
          "type": "function"
        },
        {
          "inputs": [
            {
              "internalType": "string",
              "name": "userName",
              "type": "string"
            },
            {
              "components": [
                {
                  "internalType": "string",
                  "name": "firstName",
                  "type": "string"
                },
                {
                  "internalType": "string",
                  "name": "lastName",
                  "type": "string"
                },
                {
                  "internalType": "string",
                  "name": "userName",
                  "type": "string"
                },
                {
                  "internalType": "string",
                  "name": "email",
                  "type": "string"
                },
                {
                  "internalType": "string",
                  "name": "homeAddress",
                  "type": "string"
                },
                {
                  "internalType": "string",
                  "name": "phoneNumber",
                  "type": "string"
                },
                {
                  "internalType": "string",
                  "name": "dateOfBirth",
                  "type": "string"
                }
              ],
              "internalType": "struct Identity.BasicInfo",
              "name": "basicInfo",
              "type": "tuple"
            },
            {
              "components": [
                {
                  "internalType": "string",
                  "name": "education",
                  "type": "string"
                },
                {
                  "internalType": "string",
                  "name": "workHistory",
                  "type": "string"
                },
                {
                  "internalType": "string",
                  "name": "jobTitle",
                  "type": "string"
                },
                {
                  "internalType": "string",
                  "name": "info",
                  "type": "string"
                },
                {
                  "internalType": "string[]",
                  "name": "skills",
                  "type": "string[]"
                },
                {
                  "internalType": "string",
                  "name": "imageUrl",
                  "type": "string"
                }
              ],
              "internalType": "struct Identity.ProfessionalInfo",
              "name": "professionalInfo",
              "type": "tuple"
            },
            {
              "components": [
                {
                  "internalType": "string",
                  "name": "x",
                  "type": "string"
                },
                {
                  "internalType": "string",
                  "name": "tiktok",
                  "type": "string"
                },
                {
                  "internalType": "string",
                  "name": "instargram",
                  "type": "string"
                },
                {
                  "internalType": "string",
                  "name": "youtube",
                  "type": "string"
                },
                {
                  "internalType": "string",
                  "name": "linkedin",
                  "type": "string"
                }
              ],
              "internalType": "struct Identity.SocialLinks",
              "name": "socialLinks",
              "type": "tuple"
            },
            {
              "components": [
                {
                  "internalType": "bool",
                  "name": "education",
                  "type": "bool"
                },
                {
                  "internalType": "bool",
                  "name": "workHistory",
                  "type": "bool"
                },
                {
                  "internalType": "bool",
                  "name": "phoneNumber",
                  "type": "bool"
                },
                {
                  "internalType": "bool",
                  "name": "homeAddress",
                  "type": "bool"
                },
                {
                  "internalType": "bool",
                  "name": "dateOfBirth",
                  "type": "bool"
                }
              ],
              "internalType": "struct Identity.Visibility",
              "name": "visibility",
              "type": "tuple"
            }
          ],
          "name": "editUser",
          "outputs": [],
          "stateMutability": "nonpayable",
          "type": "function"
        },
        {
          "inputs": [
            {
              "internalType": "address",
              "name": "userAddress",
              "type": "address"
            }
          ],
          "name": "getUserByAddress",
          "outputs": [
            {
              "components": [
                {
                  "internalType": "string",
                  "name": "firstName",
                  "type": "string"
                },
                {
                  "internalType": "string",
                  "name": "lastName",
                  "type": "string"
                },
                {
                  "internalType": "string",
                  "name": "userName",
                  "type": "string"
                },
                {
                  "internalType": "string",
                  "name": "email",
                  "type": "string"
                },
                {
                  "internalType": "string",
                  "name": "homeAddress",
                  "type": "string"
                },
                {
                  "internalType": "string",
                  "name": "phoneNumber",
                  "type": "string"
                },
                {
                  "internalType": "string",
                  "name": "dateOfBirth",
                  "type": "string"
                }
              ],
              "internalType": "struct Identity.BasicInfo",
              "name": "basicInfo",
              "type": "tuple"
            },
            {
              "components": [
                {
                  "internalType": "string",
                  "name": "education",
                  "type": "string"
                },
                {
                  "internalType": "string",
                  "name": "workHistory",
                  "type": "string"
                },
                {
                  "internalType": "string",
                  "name": "jobTitle",
                  "type": "string"
                },
                {
                  "internalType": "string",
                  "name": "info",
                  "type": "string"
                },
                {
                  "internalType": "string[]",
                  "name": "skills",
                  "type": "string[]"
                },
                {
                  "internalType": "string",
                  "name": "imageUrl",
                  "type": "string"
                }
              ],
              "internalType": "struct Identity.ProfessionalInfo",
              "name": "professionalInfo",
              "type": "tuple"
            },
            {
              "components": [
                {
                  "internalType": "string",
                  "name": "x",
                  "type": "string"
                },
                {
                  "internalType": "string",
                  "name": "tiktok",
                  "type": "string"
                },
                {
                  "internalType": "string",
                  "name": "instargram",
                  "type": "string"
                },
                {
                  "internalType": "string",
                  "name": "youtube",
                  "type": "string"
                },
                {
                  "internalType": "string",
                  "name": "linkedin",
                  "type": "string"
                }
              ],
              "internalType": "struct Identity.SocialLinks",
              "name": "socialLinks",
              "type": "tuple"
            },
            {
              "components": [
                {
                  "internalType": "bool",
                  "name": "education",
                  "type": "bool"
                },
                {
                  "internalType": "bool",
                  "name": "workHistory",
                  "type": "bool"
                },
                {
                  "internalType": "bool",
                  "name": "phoneNumber",
                  "type": "bool"
                },
                {
                  "internalType": "bool",
                  "name": "homeAddress",
                  "type": "bool"
                },
                {
                  "internalType": "bool",
                  "name": "dateOfBirth",
                  "type": "bool"
                }
              ],
              "internalType": "struct Identity.Visibility",
              "name": "visibility",
              "type": "tuple"
            }
          ],
          "stateMutability": "view",
          "type": "function"
        },
        {
          "inputs": [
            {
              "internalType": "string",
              "name": "userName",
              "type": "string"
            }
          ],
          "name": "getUserByUserName",
          "outputs": [
            {
              "components": [
                {
                  "internalType": "string",
                  "name": "firstName",
                  "type": "string"
                },
                {
                  "internalType": "string",
                  "name": "lastName",
                  "type": "string"
                },
                {
                  "internalType": "string",
                  "name": "userName",
                  "type": "string"
                },
                {
                  "internalType": "string",
                  "name": "email",
                  "type": "string"
                },
                {
                  "internalType": "string",
                  "name": "homeAddress",
                  "type": "string"
                },
                {
                  "internalType": "string",
                  "name": "phoneNumber",
                  "type": "string"
                },
                {
                  "internalType": "string",
                  "name": "dateOfBirth",
                  "type": "string"
                }
              ],
              "internalType": "struct Identity.BasicInfo",
              "name": "basicInfo",
              "type": "tuple"
            },
            {
              "components": [
                {
                  "internalType": "string",
                  "name": "education",
                  "type": "string"
                },
                {
                  "internalType": "string",
                  "name": "workHistory",
                  "type": "string"
                },
                {
                  "internalType": "string",
                  "name": "jobTitle",
                  "type": "string"
                },
                {
                  "internalType": "string",
                  "name": "info",
                  "type": "string"
                },
                {
                  "internalType": "string[]",
                  "name": "skills",
                  "type": "string[]"
                },
                {
                  "internalType": "string",
                  "name": "imageUrl",
                  "type": "string"
                }
              ],
              "internalType": "struct Identity.ProfessionalInfo",
              "name": "professionalInfo",
              "type": "tuple"
            },
            {
              "components": [
                {
                  "internalType": "string",
                  "name": "x",
                  "type": "string"
                },
                {
                  "internalType": "string",
                  "name": "tiktok",
                  "type": "string"
                },
                {
                  "internalType": "string",
                  "name": "instargram",
                  "type": "string"
                },
                {
                  "internalType": "string",
                  "name": "youtube",
                  "type": "string"
                },
                {
                  "internalType": "string",
                  "name": "linkedin",
                  "type": "string"
                }
              ],
              "internalType": "struct Identity.SocialLinks",
              "name": "socialLinks",
              "type": "tuple"
            },
            {
              "components": [
                {
                  "internalType": "bool",
                  "name": "education",
                  "type": "bool"
                },
                {
                  "internalType": "bool",
                  "name": "workHistory",
                  "type": "bool"
                },
                {
                  "internalType": "bool",
                  "name": "phoneNumber",
                  "type": "bool"
                },
                {
                  "internalType": "bool",
                  "name": "homeAddress",
                  "type": "bool"
                },
                {
                  "internalType": "bool",
                  "name": "dateOfBirth",
                  "type": "bool"
                }
              ],
              "internalType": "struct Identity.Visibility",
              "name": "visibility",
              "type": "tuple"
            }
          ],
          "stateMutability": "view",
          "type": "function"
        },
        {
          "inputs": [
            {
              "internalType": "address",
              "name": "userAddress",
              "type": "address"
            }
          ],
          "name": "getUserNameByAddress",
          "outputs": [
            {
              "internalType": "string",
              "name": "",
              "type": "string"
            }
          ],
          "stateMutability": "view",
          "type": "function"
        },
        {
          "inputs": [
            {
              "internalType": "string",
              "name": "userName",
              "type": "string"
            }
          ],
          "name": "getVisibility",
          "outputs": [
            {
              "components": [
                {
                  "internalType": "bool",
                  "name": "education",
                  "type": "bool"
                },
                {
                  "internalType": "bool",
                  "name": "workHistory",
                  "type": "bool"
                },
                {
                  "internalType": "bool",
                  "name": "phoneNumber",
                  "type": "bool"
                },
                {
                  "internalType": "bool",
                  "name": "homeAddress",
                  "type": "bool"
                },
                {
                  "internalType": "bool",
                  "name": "dateOfBirth",
                  "type": "bool"
                }
              ],
              "internalType": "struct Identity.Visibility",
              "name": "",
              "type": "tuple"
            }
          ],
          "stateMutability": "view",
          "type": "function"
        },
        {
          "inputs": [
            {
              "internalType": "string",
              "name": "userName",
              "type": "string"
            },
            {
              "internalType": "bool",
              "name": "education",
              "type": "bool"
            },
            {
              "internalType": "bool",
              "name": "workHistory",
              "type": "bool"
            },
            {
              "internalType": "bool",
              "name": "phoneNumber",
              "type": "bool"
            },
            {
              "internalType": "bool",
              "name": "homeAddress",
              "type": "bool"
            },
            {
              "internalType": "bool",
              "name": "dateOfBirth",
              "type": "bool"
            }
          ],
          "name": "setVisibility",
          "outputs": [],
          "stateMutability": "nonpayable",
          "type": "function"
        }
      ],
      "evm": {
        "bytecode": {
          "linkReferences": {},
          "object": "608060405234801561001057600080fd5b50612c6c806100206000396000f3fe608060405234801561001057600080fd5b506004361061007d5760003560e01c806369c212f61161005b57806369c212f6146100fe578063be6c898714610131578063d1577cac14610164578063eb0ee8da146101805761007d565b806310fe472b14610082578063320ba8f7146100b25780633f997682146100e2575b600080fd5b61009c60048036038101906100979190611a3c565b61019c565b6040516100a99190611af9565b60405180910390f35b6100cc60048036038101906100c79190611c50565b61026d565b6040516100d99190611d1c565b60405180910390f35b6100fc60048036038101906100f791906122b7565b61039d565b005b61011860048036038101906101139190611a3c565b61066f565b60405161012894939291906126b3565b60405180910390f35b61014b60048036038101906101469190611c50565b610774565b60405161015b94939291906126b3565b60405180910390f35b61017e6004803603810190610179919061270e565b61136f565b005b61019a600480360381019061019591906122b7565b6114a2565b005b6060600160008373ffffffffffffffffffffffffffffffffffffffff1673ffffffffffffffffffffffffffffffffffffffff16815260200190815260200160002080546101e8906127e6565b80601f0160208091040260200160405190810160405280929190818152602001828054610214906127e6565b80156102615780601f1061023657610100808354040283529160200191610261565b820191906000526020600020905b81548152906001019060200180831161024457829003601f168201915b50505050509050919050565b610275611815565b6000826040516102859190612853565b908152602001604051809103902060120160009054906101000a900460ff166102e3576040517f08c379a00000000000000000000000000000000000000000000000000000000081526004016102da906128b6565b60405180910390fd5b6000826040516102f39190612853565b90815260200160405180910390206014016040518060a00160405290816000820160009054906101000a900460ff161515151581526020016000820160019054906101000a900460ff161515151581526020016000820160029054906101000a900460ff161515151581526020016000820160039054906101000a900460ff161515151581526020016000820160049054906101000a900460ff1615151515815250509050919050565b6000856040516103ad9190612853565b908152602001604051809103902060120160009054906101000a900460ff1661040b576040517f08c379a0000000000000000000000000000000000000000000000000000000008152600401610402906128b6565b60405180910390fd5b6000808660405161041c9190612853565b9081526020016040518091039020905084600001518160000190816104419190612a8c565b5084602001518160010190816104579190612a8c565b50846040015181600201908161046d9190612a8c565b5084606001518160030190816104839190612a8c565b5084608001518160040190816104999190612a8c565b508460c0015181600b0190816104af9190612a8c565b50836000015181600c0190816104c59190612a8c565b50836020015181600d0190816104db9190612a8c565b508460a001518160050190816104f19190612a8c565b50836040015181600e0190816105079190612a8c565b50826000015181600601908161051d9190612a8c565b5082602001518160070190816105339190612a8c565b5082604001518160080190816105499190612a8c565b50826060015181600901908161055f9190612a8c565b50826080015181600a0190816105759190612a8c565b50836060015181600f01908161058b9190612a8c565b5083608001518160100190805190602001906105a892919061184e565b508360a001518160110190816105be9190612a8c565b50818160140160008201518160000160006101000a81548160ff02191690831515021790555060208201518160000160016101000a81548160ff02191690831515021790555060408201518160000160026101000a81548160ff02191690831515021790555060608201518160000160036101000a81548160ff02191690831515021790555060808201518160000160046101000a81548160ff021916908315150217905550905050505050505050565b6106776118a7565b61067f6118e4565b61068761191a565b61068f611815565b6000600160008773ffffffffffffffffffffffffffffffffffffffff1673ffffffffffffffffffffffffffffffffffffffff16815260200190815260200160002080546106db906127e6565b80601f0160208091040260200160405190810160405280929190818152602001828054610707906127e6565b80156107545780601f1061072957610100808354040283529160200191610754565b820191906000526020600020905b81548152906001019060200180831161073757829003601f168201915b5050505050905061076481610774565b9450945094509450509193509193565b61077c6118a7565b6107846118e4565b61078c61191a565b610794611815565b6000856040516107a49190612853565b908152602001604051809103902060120160009054906101000a900460ff16610802576040517f08c379a00000000000000000000000000000000000000000000000000000000081526004016107f990612baa565b60405180910390fd5b600080866040516108139190612853565b908152602001604051809103902090506040518060e0016040528082600001805461083d906127e6565b80601f0160208091040260200160405190810160405280929190818152602001828054610869906127e6565b80156108b65780601f1061088b576101008083540402835291602001916108b6565b820191906000526020600020905b81548152906001019060200180831161089957829003601f168201915b505050505081526020018260010180546108cf906127e6565b80601f01602080910402602001604051908101604052809291908181526020018280546108fb906127e6565b80156109485780601f1061091d57610100808354040283529160200191610948565b820191906000526020600020905b81548152906001019060200180831161092b57829003601f168201915b50505050508152602001826002018054610961906127e6565b80601f016020809104026020016040519081016040528092919081815260200182805461098d906127e6565b80156109da5780601f106109af576101008083540402835291602001916109da565b820191906000526020600020905b8154815290600101906020018083116109bd57829003601f168201915b505050505081526020018260030180546109f3906127e6565b80601f0160208091040260200160405190810160405280929190818152602001828054610a1f906127e6565b8015610a6c5780601f10610a4157610100808354040283529160200191610a6c565b820191906000526020600020905b815481529060010190602001808311610a4f57829003601f168201915b50505050508152602001826004018054610a85906127e6565b80601f0160208091040260200160405190810160405280929190818152602001828054610ab1906127e6565b8015610afe5780601f10610ad357610100808354040283529160200191610afe565b820191906000526020600020905b815481529060010190602001808311610ae157829003601f168201915b5050505050815260200182600b018054610b17906127e6565b80601f0160208091040260200160405190810160405280929190818152602001828054610b43906127e6565b8015610b905780601f10610b6557610100808354040283529160200191610b90565b820191906000526020600020905b815481529060010190602001808311610b7357829003601f168201915b50505050508152602001826005018054610ba9906127e6565b80601f0160208091040260200160405190810160405280929190818152602001828054610bd5906127e6565b8015610c225780601f10610bf757610100808354040283529160200191610c22565b820191906000526020600020905b815481529060010190602001808311610c0557829003601f168201915b505050505081525094506040518060c0016040528082600c018054610c46906127e6565b80601f0160208091040260200160405190810160405280929190818152602001828054610c72906127e6565b8015610cbf5780601f10610c9457610100808354040283529160200191610cbf565b820191906000526020600020905b815481529060010190602001808311610ca257829003601f168201915b5050505050815260200182600d018054610cd8906127e6565b80601f0160208091040260200160405190810160405280929190818152602001828054610d04906127e6565b8015610d515780601f10610d2657610100808354040283529160200191610d51565b820191906000526020600020905b815481529060010190602001808311610d3457829003601f168201915b5050505050815260200182600e018054610d6a906127e6565b80601f0160208091040260200160405190810160405280929190818152602001828054610d96906127e6565b8015610de35780601f10610db857610100808354040283529160200191610de3565b820191906000526020600020905b815481529060010190602001808311610dc657829003601f168201915b5050505050815260200182600f018054610dfc906127e6565b80601f0160208091040260200160405190810160405280929190818152602001828054610e28906127e6565b8015610e755780601f10610e4a57610100808354040283529160200191610e75565b820191906000526020600020905b815481529060010190602001808311610e5857829003601f168201915b5050505050815260200182601001805480602002602001604051908101604052809291908181526020016000905b82821015610f4f578382906000526020600020018054610ec2906127e6565b80601f0160208091040260200160405190810160405280929190818152602001828054610eee906127e6565b8015610f3b5780601f10610f1057610100808354040283529160200191610f3b565b820191906000526020600020905b815481529060010190602001808311610f1e57829003601f168201915b505050505081526020019060010190610ea3565b505050508152602001826011018054610f67906127e6565b80601f0160208091040260200160405190810160405280929190818152602001828054610f93906127e6565b8015610fe05780601f10610fb557610100808354040283529160200191610fe0565b820191906000526020600020905b815481529060010190602001808311610fc357829003601f168201915b505050505081525093506040518060a00160405280826006018054611004906127e6565b80601f0160208091040260200160405190810160405280929190818152602001828054611030906127e6565b801561107d5780601f106110525761010080835404028352916020019161107d565b820191906000526020600020905b81548152906001019060200180831161106057829003601f168201915b50505050508152602001826007018054611096906127e6565b80601f01602080910402602001604051908101604052809291908181526020018280546110c2906127e6565b801561110f5780601f106110e45761010080835404028352916020019161110f565b820191906000526020600020905b8154815290600101906020018083116110f257829003601f168201915b50505050508152602001826008018054611128906127e6565b80601f0160208091040260200160405190810160405280929190818152602001828054611154906127e6565b80156111a15780601f10611176576101008083540402835291602001916111a1565b820191906000526020600020905b81548152906001019060200180831161118457829003601f168201915b505050505081526020018260090180546111ba906127e6565b80601f01602080910402602001604051908101604052809291908181526020018280546111e6906127e6565b80156112335780601f1061120857610100808354040283529160200191611233565b820191906000526020600020905b81548152906001019060200180831161121657829003601f168201915b5050505050815260200182600a01805461124c906127e6565b80601f0160208091040260200160405190810160405280929190818152602001828054611278906127e6565b80156112c55780601f1061129a576101008083540402835291602001916112c5565b820191906000526020600020905b8154815290600101906020018083116112a857829003601f168201915b50505050508152509250806014016040518060a00160405290816000820160009054906101000a900460ff161515151581526020016000820160019054906101000a900460ff161515151581526020016000820160029054906101000a900460ff161515151581526020016000820160039054906101000a900460ff161515151581526020016000820160049054906101000a900460ff1615151515815250509150509193509193565b60008660405161137f9190612853565b908152602001604051809103902060120160009054906101000a900460ff166113dd576040517f08c379a00000000000000000000000000000000000000000000000000000000081526004016113d4906128b6565b60405180910390fd5b600080876040516113ee9190612853565b90815260200160405180910390209050858160140160000160006101000a81548160ff021916908315150217905550848160140160000160016101000a81548160ff021916908315150217905550838160140160000160026101000a81548160ff021916908315150217905550828160140160000160036101000a81548160ff021916908315150217905550818160140160000160046101000a81548160ff02191690831515021790555050505050505050565b846002816040516114b39190612853565b908152602001604051809103902060009054906101000a900460ff161561150f576040517f08c379a000000000000000000000000000000000000000000000000000000000815260040161150690612c16565b60405180910390fd5b600080876040516115209190612853565b9081526020016040518091039020905085600001518160000190816115459190612a8c565b50856020015181600101908161155b9190612a8c565b5085604001518160020190816115719190612a8c565b5085606001518160030190816115879190612a8c565b50856080015181600401908161159d9190612a8c565b508560c0015181600b0190816115b39190612a8c565b50846000015181600c0190816115c99190612a8c565b50846020015181600d0190816115df9190612a8c565b508560a001518160050190816115f59190612a8c565b50846040015181600e01908161160b9190612a8c565b5083600001518160060190816116219190612a8c565b5083602001518160070190816116379190612a8c565b50836040015181600801908161164d9190612a8c565b5083606001518160090190816116639190612a8c565b50836080015181600a0190816116799190612a8c565b50846060015181600f01908161168f9190612a8c565b5084608001518160100190805190602001906116ac92919061184e565b508460a001518160110190816116c29190612a8c565b5060018160120160006101000a81548160ff021916908315150217905550828160140160008201518160000160006101000a81548160ff02191690831515021790555060208201518160000160016101000a81548160ff02191690831515021790555060408201518160000160026101000a81548160ff02191690831515021790555060608201518160000160036101000a81548160ff02191690831515021790555060808201518160000160046101000a81548160ff021916908315150217905550905050600160028860405161179a9190612853565b908152602001604051809103902060006101000a81548160ff02191690831515021790555086600160003373ffffffffffffffffffffffffffffffffffffffff1673ffffffffffffffffffffffffffffffffffffffff168152602001908152602001600020908161180b9190612a8c565b5050505050505050565b6040518060a001604052806000151581526020016000151581526020016000151581526020016000151581526020016000151581525090565b828054828255906000526020600020908101928215611896579160200282015b828111156118955782518290816118859190612a8c565b509160200191906001019061186e565b5b5090506118a39190611949565b5090565b6040518060e00160405280606081526020016060815260200160608152602001606081526020016060815260200160608152602001606081525090565b6040518060c001604052806060815260200160608152602001606081526020016060815260200160608152602001606081525090565b6040518060a0016040528060608152602001606081526020016060815260200160608152602001606081525090565b5b808211156119695760008181611960919061196d565b5060010161194a565b5090565b508054611979906127e6565b6000825580601f1061198b57506119aa565b601f0160209004906000526020600020908101906119a991906119ad565b5b50565b5b808211156119c65760008160009055506001016119ae565b5090565b6000604051905090565b600080fd5b600080fd5b600073ffffffffffffffffffffffffffffffffffffffff82169050919050565b6000611a09826119de565b9050919050565b611a19816119fe565b8114611a2457600080fd5b50565b600081359050611a3681611a10565b92915050565b600060208284031215611a5257611a516119d4565b5b6000611a6084828501611a27565b91505092915050565b600081519050919050565b600082825260208201905092915050565b60005b83811015611aa3578082015181840152602081019050611a88565b60008484015250505050565b6000601f19601f8301169050919050565b6000611acb82611a69565b611ad58185611a74565b9350611ae5818560208601611a85565b611aee81611aaf565b840191505092915050565b60006020820190508181036000830152611b138184611ac0565b905092915050565b600080fd5b600080fd5b7f4e487b7100000000000000000000000000000000000000000000000000000000600052604160045260246000fd5b611b5d82611aaf565b810181811067ffffffffffffffff82111715611b7c57611b7b611b25565b5b80604052505050565b6000611b8f6119ca565b9050611b9b8282611b54565b919050565b600067ffffffffffffffff821115611bbb57611bba611b25565b5b611bc482611aaf565b9050602081019050919050565b82818337600083830152505050565b6000611bf3611bee84611ba0565b611b85565b905082815260208101848484011115611c0f57611c0e611b20565b5b611c1a848285611bd1565b509392505050565b600082601f830112611c3757611c36611b1b565b5b8135611c47848260208601611be0565b91505092915050565b600060208284031215611c6657611c656119d4565b5b600082013567ffffffffffffffff811115611c8457611c836119d9565b5b611c9084828501611c22565b91505092915050565b60008115159050919050565b611cae81611c99565b82525050565b60a082016000820151611cca6000850182611ca5565b506020820151611cdd6020850182611ca5565b506040820151611cf06040850182611ca5565b506060820151611d036060850182611ca5565b506080820151611d166080850182611ca5565b50505050565b600060a082019050611d316000830184611cb4565b92915050565b600080fd5b600080fd5b600060e08284031215611d5757611d56611d37565b5b611d6160e0611b85565b9050600082013567ffffffffffffffff811115611d8157611d80611d3c565b5b611d8d84828501611c22565b600083015250602082013567ffffffffffffffff811115611db157611db0611d3c565b5b611dbd84828501611c22565b602083015250604082013567ffffffffffffffff811115611de157611de0611d3c565b5b611ded84828501611c22565b604083015250606082013567ffffffffffffffff811115611e1157611e10611d3c565b5b611e1d84828501611c22565b606083015250608082013567ffffffffffffffff811115611e4157611e40611d3c565b5b611e4d84828501611c22565b60808301525060a082013567ffffffffffffffff811115611e7157611e70611d3c565b5b611e7d84828501611c22565b60a08301525060c082013567ffffffffffffffff811115611ea157611ea0611d3c565b5b611ead84828501611c22565b60c08301525092915050565b600067ffffffffffffffff821115611ed457611ed3611b25565b5b602082029050602081019050919050565b600080fd5b6000611efd611ef884611eb9565b611b85565b90508083825260208201905060208402830185811115611f2057611f1f611ee5565b5b835b81811015611f6757803567ffffffffffffffff811115611f4557611f44611b1b565b5b808601611f528982611c22565b85526020850194505050602081019050611f22565b5050509392505050565b600082601f830112611f8657611f85611b1b565b5b8135611f96848260208601611eea565b91505092915050565b600060c08284031215611fb557611fb4611d37565b5b611fbf60c0611b85565b9050600082013567ffffffffffffffff811115611fdf57611fde611d3c565b5b611feb84828501611c22565b600083015250602082013567ffffffffffffffff81111561200f5761200e611d3c565b5b61201b84828501611c22565b602083015250604082013567ffffffffffffffff81111561203f5761203e611d3c565b5b61204b84828501611c22565b604083015250606082013567ffffffffffffffff81111561206f5761206e611d3c565b5b61207b84828501611c22565b606083015250608082013567ffffffffffffffff81111561209f5761209e611d3c565b5b6120ab84828501611f71565b60808301525060a082013567ffffffffffffffff8111156120cf576120ce611d3c565b5b6120db84828501611c22565b60a08301525092915050565b600060a082840312156120fd576120fc611d37565b5b61210760a0611b85565b9050600082013567ffffffffffffffff81111561212757612126611d3c565b5b61213384828501611c22565b600083015250602082013567ffffffffffffffff81111561215757612156611d3c565b5b61216384828501611c22565b602083015250604082013567ffffffffffffffff81111561218757612186611d3c565b5b61219384828501611c22565b604083015250606082013567ffffffffffffffff8111156121b7576121b6611d3c565b5b6121c384828501611c22565b606083015250608082013567ffffffffffffffff8111156121e7576121e6611d3c565b5b6121f384828501611c22565b60808301525092915050565b61220881611c99565b811461221357600080fd5b50565b600081359050612225816121ff565b92915050565b600060a0828403121561224157612240611d37565b5b61224b60a0611b85565b9050600061225b84828501612216565b600083015250602061226f84828501612216565b602083015250604061228384828501612216565b604083015250606061229784828501612216565b60608301525060806122ab84828501612216565b60808301525092915050565b600080600080600061012086880312156122d4576122d36119d4565b5b600086013567ffffffffffffffff8111156122f2576122f16119d9565b5b6122fe88828901611c22565b955050602086013567ffffffffffffffff81111561231f5761231e6119d9565b5b61232b88828901611d41565b945050604086013567ffffffffffffffff81111561234c5761234b6119d9565b5b61235888828901611f9f565b935050606086013567ffffffffffffffff811115612379576123786119d9565b5b612385888289016120e7565b92505060806123968882890161222b565b9150509295509295909350565b600082825260208201905092915050565b60006123bf82611a69565b6123c981856123a3565b93506123d9818560208601611a85565b6123e281611aaf565b840191505092915050565b600060e083016000830151848203600086015261240a82826123b4565b9150506020830151848203602086015261242482826123b4565b9150506040830151848203604086015261243e82826123b4565b9150506060830151848203606086015261245882826123b4565b9150506080830151848203608086015261247282826123b4565b91505060a083015184820360a086015261248c82826123b4565b91505060c083015184820360c08601526124a682826123b4565b9150508091505092915050565b600081519050919050565b600082825260208201905092915050565b6000819050602082019050919050565b60006124eb83836123b4565b905092915050565b6000602082019050919050565b600061250b826124b3565b61251581856124be565b935083602082028501612527856124cf565b8060005b85811015612563578484038952815161254485826124df565b945061254f836124f3565b925060208a0199505060018101905061252b565b50829750879550505050505092915050565b600060c083016000830151848203600086015261259282826123b4565b915050602083015184820360208601526125ac82826123b4565b915050604083015184820360408601526125c682826123b4565b915050606083015184820360608601526125e082826123b4565b915050608083015184820360808601526125fa8282612500565b91505060a083015184820360a086015261261482826123b4565b9150508091505092915050565b600060a083016000830151848203600086015261263e82826123b4565b9150506020830151848203602086015261265882826123b4565b9150506040830151848203604086015261267282826123b4565b9150506060830151848203606086015261268c82826123b4565b915050608083015184820360808601526126a682826123b4565b9150508091505092915050565b60006101008201905081810360008301526126ce81876123ed565b905081810360208301526126e28186612575565b905081810360408301526126f68185612621565b90506127056060830184611cb4565b95945050505050565b60008060008060008060c0878903121561272b5761272a6119d4565b5b600087013567ffffffffffffffff811115612749576127486119d9565b5b61275589828a01611c22565b965050602061276689828a01612216565b955050604061277789828a01612216565b945050606061278889828a01612216565b935050608061279989828a01612216565b92505060a06127aa89828a01612216565b9150509295509295509295565b7f4e487b7100000000000000000000000000000000000000000000000000000000600052602260045260246000fd5b600060028204905060018216806127fe57607f821691505b602082108103612811576128106127b7565b5b50919050565b600081905092915050565b600061282d82611a69565b6128378185612817565b9350612847818560208601611a85565b80840191505092915050565b600061285f8284612822565b915081905092915050565b7f5573657220646f6573206e6f742065786973742e000000000000000000000000600082015250565b60006128a0601483611a74565b91506128ab8261286a565b602082019050919050565b600060208201905081810360008301526128cf81612893565b9050919050565b60008190508160005260206000209050919050565b60006020601f8301049050919050565b600082821b905092915050565b6000600883026129387fffffffffffffffffffffffffffffffffffffffffffffffffffffffffffffffff826128fb565b61294286836128fb565b95508019841693508086168417925050509392505050565b6000819050919050565b6000819050919050565b600061298961298461297f8461295a565b612964565b61295a565b9050919050565b6000819050919050565b6129a38361296e565b6129b76129af82612990565b848454612908565b825550505050565b600090565b6129cc6129bf565b6129d781848461299a565b505050565b5b818110156129fb576129f06000826129c4565b6001810190506129dd565b5050565b601f821115612a4057612a11816128d6565b612a1a846128eb565b81016020851015612a29578190505b612a3d612a35856128eb565b8301826129dc565b50505b505050565b600082821c905092915050565b6000612a6360001984600802612a45565b1980831691505092915050565b6000612a7c8383612a52565b9150826002028217905092915050565b612a9582611a69565b67ffffffffffffffff811115612aae57612aad611b25565b5b612ab882546127e6565b612ac38282856129ff565b600060209050601f831160018114612af65760008415612ae4578287015190505b612aee8582612a70565b865550612b56565b601f198416612b04866128d6565b60005b82811015612b2c57848901518255600182019150602085019450602081019050612b07565b86831015612b495784890151612b45601f891682612a52565b8355505b6001600288020188555050505b505050505050565b7f5573657220646f6573206e6f742065786974732e000000000000000000000000600082015250565b6000612b94601483611a74565b9150612b9f82612b5e565b602082019050919050565b60006020820190508181036000830152612bc381612b87565b9050919050565b7f5573657220616c7265616479206578697374732e000000000000000000000000600082015250565b6000612c00601483611a74565b9150612c0b82612bca565b602082019050919050565b60006020820190508181036000830152612c2f81612bf3565b905091905056fea2646970667358221220a081bd85f46e2c0b19915521b7640e2eaeb095a747871548bfbd386ee94d73bd64736f6c63430008180033",
          "opcodes": "PUSH1 0x80 PUSH1 0x40 MSTORE CALLVALUE DUP1 ISZERO PUSH2 0x10 JUMPI PUSH1 0x0 DUP1 REVERT JUMPDEST POP PUSH2 0x2C6C DUP1 PUSH2 0x20 PUSH1 0x0 CODECOPY PUSH1 0x0 RETURN INVALID PUSH1 0x80 PUSH1 0x40 MSTORE CALLVALUE DUP1 ISZERO PUSH2 0x10 JUMPI PUSH1 0x0 DUP1 REVERT JUMPDEST POP PUSH1 0x4 CALLDATASIZE LT PUSH2 0x7D JUMPI PUSH1 0x0 CALLDATALOAD PUSH1 0xE0 SHR DUP1 PUSH4 0x69C212F6 GT PUSH2 0x5B JUMPI DUP1 PUSH4 0x69C212F6 EQ PUSH2 0xFE JUMPI DUP1 PUSH4 0xBE6C8987 EQ PUSH2 0x131 JUMPI DUP1 PUSH4 0xD1577CAC EQ PUSH2 0x164 JUMPI DUP1 PUSH4 0xEB0EE8DA EQ PUSH2 0x180 JUMPI PUSH2 0x7D JUMP JUMPDEST DUP1 PUSH4 0x10FE472B EQ PUSH2 0x82 JUMPI DUP1 PUSH4 0x320BA8F7 EQ PUSH2 0xB2 JUMPI DUP1 PUSH4 0x3F997682 EQ PUSH2 0xE2 JUMPI JUMPDEST PUSH1 0x0 DUP1 REVERT JUMPDEST PUSH2 0x9C PUSH1 0x4 DUP1 CALLDATASIZE SUB DUP2 ADD SWAP1 PUSH2 0x97 SWAP2 SWAP1 PUSH2 0x1A3C JUMP JUMPDEST PUSH2 0x19C JUMP JUMPDEST PUSH1 0x40 MLOAD PUSH2 0xA9 SWAP2 SWAP1 PUSH2 0x1AF9 JUMP JUMPDEST PUSH1 0x40 MLOAD DUP1 SWAP2 SUB SWAP1 RETURN JUMPDEST PUSH2 0xCC PUSH1 0x4 DUP1 CALLDATASIZE SUB DUP2 ADD SWAP1 PUSH2 0xC7 SWAP2 SWAP1 PUSH2 0x1C50 JUMP JUMPDEST PUSH2 0x26D JUMP JUMPDEST PUSH1 0x40 MLOAD PUSH2 0xD9 SWAP2 SWAP1 PUSH2 0x1D1C JUMP JUMPDEST PUSH1 0x40 MLOAD DUP1 SWAP2 SUB SWAP1 RETURN JUMPDEST PUSH2 0xFC PUSH1 0x4 DUP1 CALLDATASIZE SUB DUP2 ADD SWAP1 PUSH2 0xF7 SWAP2 SWAP1 PUSH2 0x22B7 JUMP JUMPDEST PUSH2 0x39D JUMP JUMPDEST STOP JUMPDEST PUSH2 0x118 PUSH1 0x4 DUP1 CALLDATASIZE SUB DUP2 ADD SWAP1 PUSH2 0x113 SWAP2 SWAP1 PUSH2 0x1A3C JUMP JUMPDEST PUSH2 0x66F JUMP JUMPDEST PUSH1 0x40 MLOAD PUSH2 0x128 SWAP5 SWAP4 SWAP3 SWAP2 SWAP1 PUSH2 0x26B3 JUMP JUMPDEST PUSH1 0x40 MLOAD DUP1 SWAP2 SUB SWAP1 RETURN JUMPDEST PUSH2 0x14B PUSH1 0x4 DUP1 CALLDATASIZE SUB DUP2 ADD SWAP1 PUSH2 0x146 SWAP2 SWAP1 PUSH2 0x1C50 JUMP JUMPDEST PUSH2 0x774 JUMP JUMPDEST PUSH1 0x40 MLOAD PUSH2 0x15B SWAP5 SWAP4 SWAP3 SWAP2 SWAP1 PUSH2 0x26B3 JUMP JUMPDEST PUSH1 0x40 MLOAD DUP1 SWAP2 SUB SWAP1 RETURN JUMPDEST PUSH2 0x17E PUSH1 0x4 DUP1 CALLDATASIZE SUB DUP2 ADD SWAP1 PUSH2 0x179 SWAP2 SWAP1 PUSH2 0x270E JUMP JUMPDEST PUSH2 0x136F JUMP JUMPDEST STOP JUMPDEST PUSH2 0x19A PUSH1 0x4 DUP1 CALLDATASIZE SUB DUP2 ADD SWAP1 PUSH2 0x195 SWAP2 SWAP1 PUSH2 0x22B7 JUMP JUMPDEST PUSH2 0x14A2 JUMP JUMPDEST STOP JUMPDEST PUSH1 0x60 PUSH1 0x1 PUSH1 0x0 DUP4 PUSH20 0xFFFFFFFFFFFFFFFFFFFFFFFFFFFFFFFFFFFFFFFF AND PUSH20 0xFFFFFFFFFFFFFFFFFFFFFFFFFFFFFFFFFFFFFFFF AND DUP2 MSTORE PUSH1 0x20 ADD SWAP1 DUP2 MSTORE PUSH1 0x20 ADD PUSH1 0x0 KECCAK256 DUP1 SLOAD PUSH2 0x1E8 SWAP1 PUSH2 0x27E6 JUMP JUMPDEST DUP1 PUSH1 0x1F ADD PUSH1 0x20 DUP1 SWAP2 DIV MUL PUSH1 0x20 ADD PUSH1 0x40 MLOAD SWAP1 DUP2 ADD PUSH1 0x40 MSTORE DUP1 SWAP3 SWAP2 SWAP1 DUP2 DUP2 MSTORE PUSH1 0x20 ADD DUP3 DUP1 SLOAD PUSH2 0x214 SWAP1 PUSH2 0x27E6 JUMP JUMPDEST DUP1 ISZERO PUSH2 0x261 JUMPI DUP1 PUSH1 0x1F LT PUSH2 0x236 JUMPI PUSH2 0x100 DUP1 DUP4 SLOAD DIV MUL DUP4 MSTORE SWAP2 PUSH1 0x20 ADD SWAP2 PUSH2 0x261 JUMP JUMPDEST DUP3 ADD SWAP2 SWAP1 PUSH1 0x0 MSTORE PUSH1 0x20 PUSH1 0x0 KECCAK256 SWAP1 JUMPDEST DUP2 SLOAD DUP2 MSTORE SWAP1 PUSH1 0x1 ADD SWAP1 PUSH1 0x20 ADD DUP1 DUP4 GT PUSH2 0x244 JUMPI DUP3 SWAP1 SUB PUSH1 0x1F AND DUP3 ADD SWAP2 JUMPDEST POP POP POP POP POP SWAP1 POP SWAP2 SWAP1 POP JUMP JUMPDEST PUSH2 0x275 PUSH2 0x1815 JUMP JUMPDEST PUSH1 0x0 DUP3 PUSH1 0x40 MLOAD PUSH2 0x285 SWAP2 SWAP1 PUSH2 0x2853 JUMP JUMPDEST SWAP1 DUP2 MSTORE PUSH1 0x20 ADD PUSH1 0x40 MLOAD DUP1 SWAP2 SUB SWAP1 KECCAK256 PUSH1 0x12 ADD PUSH1 0x0 SWAP1 SLOAD SWAP1 PUSH2 0x100 EXP SWAP1 DIV PUSH1 0xFF AND PUSH2 0x2E3 JUMPI PUSH1 0x40 MLOAD PUSH32 0x8C379A000000000000000000000000000000000000000000000000000000000 DUP2 MSTORE PUSH1 0x4 ADD PUSH2 0x2DA SWAP1 PUSH2 0x28B6 JUMP JUMPDEST PUSH1 0x40 MLOAD DUP1 SWAP2 SUB SWAP1 REVERT JUMPDEST PUSH1 0x0 DUP3 PUSH1 0x40 MLOAD PUSH2 0x2F3 SWAP2 SWAP1 PUSH2 0x2853 JUMP JUMPDEST SWAP1 DUP2 MSTORE PUSH1 0x20 ADD PUSH1 0x40 MLOAD DUP1 SWAP2 SUB SWAP1 KECCAK256 PUSH1 0x14 ADD PUSH1 0x40 MLOAD DUP1 PUSH1 0xA0 ADD PUSH1 0x40 MSTORE SWAP1 DUP2 PUSH1 0x0 DUP3 ADD PUSH1 0x0 SWAP1 SLOAD SWAP1 PUSH2 0x100 EXP SWAP1 DIV PUSH1 0xFF AND ISZERO ISZERO ISZERO ISZERO DUP2 MSTORE PUSH1 0x20 ADD PUSH1 0x0 DUP3 ADD PUSH1 0x1 SWAP1 SLOAD SWAP1 PUSH2 0x100 EXP SWAP1 DIV PUSH1 0xFF AND ISZERO ISZERO ISZERO ISZERO DUP2 MSTORE PUSH1 0x20 ADD PUSH1 0x0 DUP3 ADD PUSH1 0x2 SWAP1 SLOAD SWAP1 PUSH2 0x100 EXP SWAP1 DIV PUSH1 0xFF AND ISZERO ISZERO ISZERO ISZERO DUP2 MSTORE PUSH1 0x20 ADD PUSH1 0x0 DUP3 ADD PUSH1 0x3 SWAP1 SLOAD SWAP1 PUSH2 0x100 EXP SWAP1 DIV PUSH1 0xFF AND ISZERO ISZERO ISZERO ISZERO DUP2 MSTORE PUSH1 0x20 ADD PUSH1 0x0 DUP3 ADD PUSH1 0x4 SWAP1 SLOAD SWAP1 PUSH2 0x100 EXP SWAP1 DIV PUSH1 0xFF AND ISZERO ISZERO ISZERO ISZERO DUP2 MSTORE POP POP SWAP1 POP SWAP2 SWAP1 POP JUMP JUMPDEST PUSH1 0x0 DUP6 PUSH1 0x40 MLOAD PUSH2 0x3AD SWAP2 SWAP1 PUSH2 0x2853 JUMP JUMPDEST SWAP1 DUP2 MSTORE PUSH1 0x20 ADD PUSH1 0x40 MLOAD DUP1 SWAP2 SUB SWAP1 KECCAK256 PUSH1 0x12 ADD PUSH1 0x0 SWAP1 SLOAD SWAP1 PUSH2 0x100 EXP SWAP1 DIV PUSH1 0xFF AND PUSH2 0x40B JUMPI PUSH1 0x40 MLOAD PUSH32 0x8C379A000000000000000000000000000000000000000000000000000000000 DUP2 MSTORE PUSH1 0x4 ADD PUSH2 0x402 SWAP1 PUSH2 0x28B6 JUMP JUMPDEST PUSH1 0x40 MLOAD DUP1 SWAP2 SUB SWAP1 REVERT JUMPDEST PUSH1 0x0 DUP1 DUP7 PUSH1 0x40 MLOAD PUSH2 0x41C SWAP2 SWAP1 PUSH2 0x2853 JUMP JUMPDEST SWAP1 DUP2 MSTORE PUSH1 0x20 ADD PUSH1 0x40 MLOAD DUP1 SWAP2 SUB SWAP1 KECCAK256 SWAP1 POP DUP5 PUSH1 0x0 ADD MLOAD DUP2 PUSH1 0x0 ADD SWAP1 DUP2 PUSH2 0x441 SWAP2 SWAP1 PUSH2 0x2A8C JUMP JUMPDEST POP DUP5 PUSH1 0x20 ADD MLOAD DUP2 PUSH1 0x1 ADD SWAP1 DUP2 PUSH2 0x457 SWAP2 SWAP1 PUSH2 0x2A8C JUMP JUMPDEST POP DUP5 PUSH1 0x40 ADD MLOAD DUP2 PUSH1 0x2 ADD SWAP1 DUP2 PUSH2 0x46D SWAP2 SWAP1 PUSH2 0x2A8C JUMP JUMPDEST POP DUP5 PUSH1 0x60 ADD MLOAD DUP2 PUSH1 0x3 ADD SWAP1 DUP2 PUSH2 0x483 SWAP2 SWAP1 PUSH2 0x2A8C JUMP JUMPDEST POP DUP5 PUSH1 0x80 ADD MLOAD DUP2 PUSH1 0x4 ADD SWAP1 DUP2 PUSH2 0x499 SWAP2 SWAP1 PUSH2 0x2A8C JUMP JUMPDEST POP DUP5 PUSH1 0xC0 ADD MLOAD DUP2 PUSH1 0xB ADD SWAP1 DUP2 PUSH2 0x4AF SWAP2 SWAP1 PUSH2 0x2A8C JUMP JUMPDEST POP DUP4 PUSH1 0x0 ADD MLOAD DUP2 PUSH1 0xC ADD SWAP1 DUP2 PUSH2 0x4C5 SWAP2 SWAP1 PUSH2 0x2A8C JUMP JUMPDEST POP DUP4 PUSH1 0x20 ADD MLOAD DUP2 PUSH1 0xD ADD SWAP1 DUP2 PUSH2 0x4DB SWAP2 SWAP1 PUSH2 0x2A8C JUMP JUMPDEST POP DUP5 PUSH1 0xA0 ADD MLOAD DUP2 PUSH1 0x5 ADD SWAP1 DUP2 PUSH2 0x4F1 SWAP2 SWAP1 PUSH2 0x2A8C JUMP JUMPDEST POP DUP4 PUSH1 0x40 ADD MLOAD DUP2 PUSH1 0xE ADD SWAP1 DUP2 PUSH2 0x507 SWAP2 SWAP1 PUSH2 0x2A8C JUMP JUMPDEST POP DUP3 PUSH1 0x0 ADD MLOAD DUP2 PUSH1 0x6 ADD SWAP1 DUP2 PUSH2 0x51D SWAP2 SWAP1 PUSH2 0x2A8C JUMP JUMPDEST POP DUP3 PUSH1 0x20 ADD MLOAD DUP2 PUSH1 0x7 ADD SWAP1 DUP2 PUSH2 0x533 SWAP2 SWAP1 PUSH2 0x2A8C JUMP JUMPDEST POP DUP3 PUSH1 0x40 ADD MLOAD DUP2 PUSH1 0x8 ADD SWAP1 DUP2 PUSH2 0x549 SWAP2 SWAP1 PUSH2 0x2A8C JUMP JUMPDEST POP DUP3 PUSH1 0x60 ADD MLOAD DUP2 PUSH1 0x9 ADD SWAP1 DUP2 PUSH2 0x55F SWAP2 SWAP1 PUSH2 0x2A8C JUMP JUMPDEST POP DUP3 PUSH1 0x80 ADD MLOAD DUP2 PUSH1 0xA ADD SWAP1 DUP2 PUSH2 0x575 SWAP2 SWAP1 PUSH2 0x2A8C JUMP JUMPDEST POP DUP4 PUSH1 0x60 ADD MLOAD DUP2 PUSH1 0xF ADD SWAP1 DUP2 PUSH2 0x58B SWAP2 SWAP1 PUSH2 0x2A8C JUMP JUMPDEST POP DUP4 PUSH1 0x80 ADD MLOAD DUP2 PUSH1 0x10 ADD SWAP1 DUP1 MLOAD SWAP1 PUSH1 0x20 ADD SWAP1 PUSH2 0x5A8 SWAP3 SWAP2 SWAP1 PUSH2 0x184E JUMP JUMPDEST POP DUP4 PUSH1 0xA0 ADD MLOAD DUP2 PUSH1 0x11 ADD SWAP1 DUP2 PUSH2 0x5BE SWAP2 SWAP1 PUSH2 0x2A8C JUMP JUMPDEST POP DUP2 DUP2 PUSH1 0x14 ADD PUSH1 0x0 DUP3 ADD MLOAD DUP2 PUSH1 0x0 ADD PUSH1 0x0 PUSH2 0x100 EXP DUP2 SLOAD DUP2 PUSH1 0xFF MUL NOT AND SWAP1 DUP4 ISZERO ISZERO MUL OR SWAP1 SSTORE POP PUSH1 0x20 DUP3 ADD MLOAD DUP2 PUSH1 0x0 ADD PUSH1 0x1 PUSH2 0x100 EXP DUP2 SLOAD DUP2 PUSH1 0xFF MUL NOT AND SWAP1 DUP4 ISZERO ISZERO MUL OR SWAP1 SSTORE POP PUSH1 0x40 DUP3 ADD MLOAD DUP2 PUSH1 0x0 ADD PUSH1 0x2 PUSH2 0x100 EXP DUP2 SLOAD DUP2 PUSH1 0xFF MUL NOT AND SWAP1 DUP4 ISZERO ISZERO MUL OR SWAP1 SSTORE POP PUSH1 0x60 DUP3 ADD MLOAD DUP2 PUSH1 0x0 ADD PUSH1 0x3 PUSH2 0x100 EXP DUP2 SLOAD DUP2 PUSH1 0xFF MUL NOT AND SWAP1 DUP4 ISZERO ISZERO MUL OR SWAP1 SSTORE POP PUSH1 0x80 DUP3 ADD MLOAD DUP2 PUSH1 0x0 ADD PUSH1 0x4 PUSH2 0x100 EXP DUP2 SLOAD DUP2 PUSH1 0xFF MUL NOT AND SWAP1 DUP4 ISZERO ISZERO MUL OR SWAP1 SSTORE POP SWAP1 POP POP POP POP POP POP POP POP JUMP JUMPDEST PUSH2 0x677 PUSH2 0x18A7 JUMP JUMPDEST PUSH2 0x67F PUSH2 0x18E4 JUMP JUMPDEST PUSH2 0x687 PUSH2 0x191A JUMP JUMPDEST PUSH2 0x68F PUSH2 0x1815 JUMP JUMPDEST PUSH1 0x0 PUSH1 0x1 PUSH1 0x0 DUP8 PUSH20 0xFFFFFFFFFFFFFFFFFFFFFFFFFFFFFFFFFFFFFFFF AND PUSH20 0xFFFFFFFFFFFFFFFFFFFFFFFFFFFFFFFFFFFFFFFF AND DUP2 MSTORE PUSH1 0x20 ADD SWAP1 DUP2 MSTORE PUSH1 0x20 ADD PUSH1 0x0 KECCAK256 DUP1 SLOAD PUSH2 0x6DB SWAP1 PUSH2 0x27E6 JUMP JUMPDEST DUP1 PUSH1 0x1F ADD PUSH1 0x20 DUP1 SWAP2 DIV MUL PUSH1 0x20 ADD PUSH1 0x40 MLOAD SWAP1 DUP2 ADD PUSH1 0x40 MSTORE DUP1 SWAP3 SWAP2 SWAP1 DUP2 DUP2 MSTORE PUSH1 0x20 ADD DUP3 DUP1 SLOAD PUSH2 0x707 SWAP1 PUSH2 0x27E6 JUMP JUMPDEST DUP1 ISZERO PUSH2 0x754 JUMPI DUP1 PUSH1 0x1F LT PUSH2 0x729 JUMPI PUSH2 0x100 DUP1 DUP4 SLOAD DIV MUL DUP4 MSTORE SWAP2 PUSH1 0x20 ADD SWAP2 PUSH2 0x754 JUMP JUMPDEST DUP3 ADD SWAP2 SWAP1 PUSH1 0x0 MSTORE PUSH1 0x20 PUSH1 0x0 KECCAK256 SWAP1 JUMPDEST DUP2 SLOAD DUP2 MSTORE SWAP1 PUSH1 0x1 ADD SWAP1 PUSH1 0x20 ADD DUP1 DUP4 GT PUSH2 0x737 JUMPI DUP3 SWAP1 SUB PUSH1 0x1F AND DUP3 ADD SWAP2 JUMPDEST POP POP POP POP POP SWAP1 POP PUSH2 0x764 DUP2 PUSH2 0x774 JUMP JUMPDEST SWAP5 POP SWAP5 POP SWAP5 POP SWAP5 POP POP SWAP2 SWAP4 POP SWAP2 SWAP4 JUMP JUMPDEST PUSH2 0x77C PUSH2 0x18A7 JUMP JUMPDEST PUSH2 0x784 PUSH2 0x18E4 JUMP JUMPDEST PUSH2 0x78C PUSH2 0x191A JUMP JUMPDEST PUSH2 0x794 PUSH2 0x1815 JUMP JUMPDEST PUSH1 0x0 DUP6 PUSH1 0x40 MLOAD PUSH2 0x7A4 SWAP2 SWAP1 PUSH2 0x2853 JUMP JUMPDEST SWAP1 DUP2 MSTORE PUSH1 0x20 ADD PUSH1 0x40 MLOAD DUP1 SWAP2 SUB SWAP1 KECCAK256 PUSH1 0x12 ADD PUSH1 0x0 SWAP1 SLOAD SWAP1 PUSH2 0x100 EXP SWAP1 DIV PUSH1 0xFF AND PUSH2 0x802 JUMPI PUSH1 0x40 MLOAD PUSH32 0x8C379A000000000000000000000000000000000000000000000000000000000 DUP2 MSTORE PUSH1 0x4 ADD PUSH2 0x7F9 SWAP1 PUSH2 0x2BAA JUMP JUMPDEST PUSH1 0x40 MLOAD DUP1 SWAP2 SUB SWAP1 REVERT JUMPDEST PUSH1 0x0 DUP1 DUP7 PUSH1 0x40 MLOAD PUSH2 0x813 SWAP2 SWAP1 PUSH2 0x2853 JUMP JUMPDEST SWAP1 DUP2 MSTORE PUSH1 0x20 ADD PUSH1 0x40 MLOAD DUP1 SWAP2 SUB SWAP1 KECCAK256 SWAP1 POP PUSH1 0x40 MLOAD DUP1 PUSH1 0xE0 ADD PUSH1 0x40 MSTORE DUP1 DUP3 PUSH1 0x0 ADD DUP1 SLOAD PUSH2 0x83D SWAP1 PUSH2 0x27E6 JUMP JUMPDEST DUP1 PUSH1 0x1F ADD PUSH1 0x20 DUP1 SWAP2 DIV MUL PUSH1 0x20 ADD PUSH1 0x40 MLOAD SWAP1 DUP2 ADD PUSH1 0x40 MSTORE DUP1 SWAP3 SWAP2 SWAP1 DUP2 DUP2 MSTORE PUSH1 0x20 ADD DUP3 DUP1 SLOAD PUSH2 0x869 SWAP1 PUSH2 0x27E6 JUMP JUMPDEST DUP1 ISZERO PUSH2 0x8B6 JUMPI DUP1 PUSH1 0x1F LT PUSH2 0x88B JUMPI PUSH2 0x100 DUP1 DUP4 SLOAD DIV MUL DUP4 MSTORE SWAP2 PUSH1 0x20 ADD SWAP2 PUSH2 0x8B6 JUMP JUMPDEST DUP3 ADD SWAP2 SWAP1 PUSH1 0x0 MSTORE PUSH1 0x20 PUSH1 0x0 KECCAK256 SWAP1 JUMPDEST DUP2 SLOAD DUP2 MSTORE SWAP1 PUSH1 0x1 ADD SWAP1 PUSH1 0x20 ADD DUP1 DUP4 GT PUSH2 0x899 JUMPI DUP3 SWAP1 SUB PUSH1 0x1F AND DUP3 ADD SWAP2 JUMPDEST POP POP POP POP POP DUP2 MSTORE PUSH1 0x20 ADD DUP3 PUSH1 0x1 ADD DUP1 SLOAD PUSH2 0x8CF SWAP1 PUSH2 0x27E6 JUMP JUMPDEST DUP1 PUSH1 0x1F ADD PUSH1 0x20 DUP1 SWAP2 DIV MUL PUSH1 0x20 ADD PUSH1 0x40 MLOAD SWAP1 DUP2 ADD PUSH1 0x40 MSTORE DUP1 SWAP3 SWAP2 SWAP1 DUP2 DUP2 MSTORE PUSH1 0x20 ADD DUP3 DUP1 SLOAD PUSH2 0x8FB SWAP1 PUSH2 0x27E6 JUMP JUMPDEST DUP1 ISZERO PUSH2 0x948 JUMPI DUP1 PUSH1 0x1F LT PUSH2 0x91D JUMPI PUSH2 0x100 DUP1 DUP4 SLOAD DIV MUL DUP4 MSTORE SWAP2 PUSH1 0x20 ADD SWAP2 PUSH2 0x948 JUMP JUMPDEST DUP3 ADD SWAP2 SWAP1 PUSH1 0x0 MSTORE PUSH1 0x20 PUSH1 0x0 KECCAK256 SWAP1 JUMPDEST DUP2 SLOAD DUP2 MSTORE SWAP1 PUSH1 0x1 ADD SWAP1 PUSH1 0x20 ADD DUP1 DUP4 GT PUSH2 0x92B JUMPI DUP3 SWAP1 SUB PUSH1 0x1F AND DUP3 ADD SWAP2 JUMPDEST POP POP POP POP POP DUP2 MSTORE PUSH1 0x20 ADD DUP3 PUSH1 0x2 ADD DUP1 SLOAD PUSH2 0x961 SWAP1 PUSH2 0x27E6 JUMP JUMPDEST DUP1 PUSH1 0x1F ADD PUSH1 0x20 DUP1 SWAP2 DIV MUL PUSH1 0x20 ADD PUSH1 0x40 MLOAD SWAP1 DUP2 ADD PUSH1 0x40 MSTORE DUP1 SWAP3 SWAP2 SWAP1 DUP2 DUP2 MSTORE PUSH1 0x20 ADD DUP3 DUP1 SLOAD PUSH2 0x98D SWAP1 PUSH2 0x27E6 JUMP JUMPDEST DUP1 ISZERO PUSH2 0x9DA JUMPI DUP1 PUSH1 0x1F LT PUSH2 0x9AF JUMPI PUSH2 0x100 DUP1 DUP4 SLOAD DIV MUL DUP4 MSTORE SWAP2 PUSH1 0x20 ADD SWAP2 PUSH2 0x9DA JUMP JUMPDEST DUP3 ADD SWAP2 SWAP1 PUSH1 0x0 MSTORE PUSH1 0x20 PUSH1 0x0 KECCAK256 SWAP1 JUMPDEST DUP2 SLOAD DUP2 MSTORE SWAP1 PUSH1 0x1 ADD SWAP1 PUSH1 0x20 ADD DUP1 DUP4 GT PUSH2 0x9BD JUMPI DUP3 SWAP1 SUB PUSH1 0x1F AND DUP3 ADD SWAP2 JUMPDEST POP POP POP POP POP DUP2 MSTORE PUSH1 0x20 ADD DUP3 PUSH1 0x3 ADD DUP1 SLOAD PUSH2 0x9F3 SWAP1 PUSH2 0x27E6 JUMP JUMPDEST DUP1 PUSH1 0x1F ADD PUSH1 0x20 DUP1 SWAP2 DIV MUL PUSH1 0x20 ADD PUSH1 0x40 MLOAD SWAP1 DUP2 ADD PUSH1 0x40 MSTORE DUP1 SWAP3 SWAP2 SWAP1 DUP2 DUP2 MSTORE PUSH1 0x20 ADD DUP3 DUP1 SLOAD PUSH2 0xA1F SWAP1 PUSH2 0x27E6 JUMP JUMPDEST DUP1 ISZERO PUSH2 0xA6C JUMPI DUP1 PUSH1 0x1F LT PUSH2 0xA41 JUMPI PUSH2 0x100 DUP1 DUP4 SLOAD DIV MUL DUP4 MSTORE SWAP2 PUSH1 0x20 ADD SWAP2 PUSH2 0xA6C JUMP JUMPDEST DUP3 ADD SWAP2 SWAP1 PUSH1 0x0 MSTORE PUSH1 0x20 PUSH1 0x0 KECCAK256 SWAP1 JUMPDEST DUP2 SLOAD DUP2 MSTORE SWAP1 PUSH1 0x1 ADD SWAP1 PUSH1 0x20 ADD DUP1 DUP4 GT PUSH2 0xA4F JUMPI DUP3 SWAP1 SUB PUSH1 0x1F AND DUP3 ADD SWAP2 JUMPDEST POP POP POP POP POP DUP2 MSTORE PUSH1 0x20 ADD DUP3 PUSH1 0x4 ADD DUP1 SLOAD PUSH2 0xA85 SWAP1 PUSH2 0x27E6 JUMP JUMPDEST DUP1 PUSH1 0x1F ADD PUSH1 0x20 DUP1 SWAP2 DIV MUL PUSH1 0x20 ADD PUSH1 0x40 MLOAD SWAP1 DUP2 ADD PUSH1 0x40 MSTORE DUP1 SWAP3 SWAP2 SWAP1 DUP2 DUP2 MSTORE PUSH1 0x20 ADD DUP3 DUP1 SLOAD PUSH2 0xAB1 SWAP1 PUSH2 0x27E6 JUMP JUMPDEST DUP1 ISZERO PUSH2 0xAFE JUMPI DUP1 PUSH1 0x1F LT PUSH2 0xAD3 JUMPI PUSH2 0x100 DUP1 DUP4 SLOAD DIV MUL DUP4 MSTORE SWAP2 PUSH1 0x20 ADD SWAP2 PUSH2 0xAFE JUMP JUMPDEST DUP3 ADD SWAP2 SWAP1 PUSH1 0x0 MSTORE PUSH1 0x20 PUSH1 0x0 KECCAK256 SWAP1 JUMPDEST DUP2 SLOAD DUP2 MSTORE SWAP1 PUSH1 0x1 ADD SWAP1 PUSH1 0x20 ADD DUP1 DUP4 GT PUSH2 0xAE1 JUMPI DUP3 SWAP1 SUB PUSH1 0x1F AND DUP3 ADD SWAP2 JUMPDEST POP POP POP POP POP DUP2 MSTORE PUSH1 0x20 ADD DUP3 PUSH1 0xB ADD DUP1 SLOAD PUSH2 0xB17 SWAP1 PUSH2 0x27E6 JUMP JUMPDEST DUP1 PUSH1 0x1F ADD PUSH1 0x20 DUP1 SWAP2 DIV MUL PUSH1 0x20 ADD PUSH1 0x40 MLOAD SWAP1 DUP2 ADD PUSH1 0x40 MSTORE DUP1 SWAP3 SWAP2 SWAP1 DUP2 DUP2 MSTORE PUSH1 0x20 ADD DUP3 DUP1 SLOAD PUSH2 0xB43 SWAP1 PUSH2 0x27E6 JUMP JUMPDEST DUP1 ISZERO PUSH2 0xB90 JUMPI DUP1 PUSH1 0x1F LT PUSH2 0xB65 JUMPI PUSH2 0x100 DUP1 DUP4 SLOAD DIV MUL DUP4 MSTORE SWAP2 PUSH1 0x20 ADD SWAP2 PUSH2 0xB90 JUMP JUMPDEST DUP3 ADD SWAP2 SWAP1 PUSH1 0x0 MSTORE PUSH1 0x20 PUSH1 0x0 KECCAK256 SWAP1 JUMPDEST DUP2 SLOAD DUP2 MSTORE SWAP1 PUSH1 0x1 ADD SWAP1 PUSH1 0x20 ADD DUP1 DUP4 GT PUSH2 0xB73 JUMPI DUP3 SWAP1 SUB PUSH1 0x1F AND DUP3 ADD SWAP2 JUMPDEST POP POP POP POP POP DUP2 MSTORE PUSH1 0x20 ADD DUP3 PUSH1 0x5 ADD DUP1 SLOAD PUSH2 0xBA9 SWAP1 PUSH2 0x27E6 JUMP JUMPDEST DUP1 PUSH1 0x1F ADD PUSH1 0x20 DUP1 SWAP2 DIV MUL PUSH1 0x20 ADD PUSH1 0x40 MLOAD SWAP1 DUP2 ADD PUSH1 0x40 MSTORE DUP1 SWAP3 SWAP2 SWAP1 DUP2 DUP2 MSTORE PUSH1 0x20 ADD DUP3 DUP1 SLOAD PUSH2 0xBD5 SWAP1 PUSH2 0x27E6 JUMP JUMPDEST DUP1 ISZERO PUSH2 0xC22 JUMPI DUP1 PUSH1 0x1F LT PUSH2 0xBF7 JUMPI PUSH2 0x100 DUP1 DUP4 SLOAD DIV MUL DUP4 MSTORE SWAP2 PUSH1 0x20 ADD SWAP2 PUSH2 0xC22 JUMP JUMPDEST DUP3 ADD SWAP2 SWAP1 PUSH1 0x0 MSTORE PUSH1 0x20 PUSH1 0x0 KECCAK256 SWAP1 JUMPDEST DUP2 SLOAD DUP2 MSTORE SWAP1 PUSH1 0x1 ADD SWAP1 PUSH1 0x20 ADD DUP1 DUP4 GT PUSH2 0xC05 JUMPI DUP3 SWAP1 SUB PUSH1 0x1F AND DUP3 ADD SWAP2 JUMPDEST POP POP POP POP POP DUP2 MSTORE POP SWAP5 POP PUSH1 0x40 MLOAD DUP1 PUSH1 0xC0 ADD PUSH1 0x40 MSTORE DUP1 DUP3 PUSH1 0xC ADD DUP1 SLOAD PUSH2 0xC46 SWAP1 PUSH2 0x27E6 JUMP JUMPDEST DUP1 PUSH1 0x1F ADD PUSH1 0x20 DUP1 SWAP2 DIV MUL PUSH1 0x20 ADD PUSH1 0x40 MLOAD SWAP1 DUP2 ADD PUSH1 0x40 MSTORE DUP1 SWAP3 SWAP2 SWAP1 DUP2 DUP2 MSTORE PUSH1 0x20 ADD DUP3 DUP1 SLOAD PUSH2 0xC72 SWAP1 PUSH2 0x27E6 JUMP JUMPDEST DUP1 ISZERO PUSH2 0xCBF JUMPI DUP1 PUSH1 0x1F LT PUSH2 0xC94 JUMPI PUSH2 0x100 DUP1 DUP4 SLOAD DIV MUL DUP4 MSTORE SWAP2 PUSH1 0x20 ADD SWAP2 PUSH2 0xCBF JUMP JUMPDEST DUP3 ADD SWAP2 SWAP1 PUSH1 0x0 MSTORE PUSH1 0x20 PUSH1 0x0 KECCAK256 SWAP1 JUMPDEST DUP2 SLOAD DUP2 MSTORE SWAP1 PUSH1 0x1 ADD SWAP1 PUSH1 0x20 ADD DUP1 DUP4 GT PUSH2 0xCA2 JUMPI DUP3 SWAP1 SUB PUSH1 0x1F AND DUP3 ADD SWAP2 JUMPDEST POP POP POP POP POP DUP2 MSTORE PUSH1 0x20 ADD DUP3 PUSH1 0xD ADD DUP1 SLOAD PUSH2 0xCD8 SWAP1 PUSH2 0x27E6 JUMP JUMPDEST DUP1 PUSH1 0x1F ADD PUSH1 0x20 DUP1 SWAP2 DIV MUL PUSH1 0x20 ADD PUSH1 0x40 MLOAD SWAP1 DUP2 ADD PUSH1 0x40 MSTORE DUP1 SWAP3 SWAP2 SWAP1 DUP2 DUP2 MSTORE PUSH1 0x20 ADD DUP3 DUP1 SLOAD PUSH2 0xD04 SWAP1 PUSH2 0x27E6 JUMP JUMPDEST DUP1 ISZERO PUSH2 0xD51 JUMPI DUP1 PUSH1 0x1F LT PUSH2 0xD26 JUMPI PUSH2 0x100 DUP1 DUP4 SLOAD DIV MUL DUP4 MSTORE SWAP2 PUSH1 0x20 ADD SWAP2 PUSH2 0xD51 JUMP JUMPDEST DUP3 ADD SWAP2 SWAP1 PUSH1 0x0 MSTORE PUSH1 0x20 PUSH1 0x0 KECCAK256 SWAP1 JUMPDEST DUP2 SLOAD DUP2 MSTORE SWAP1 PUSH1 0x1 ADD SWAP1 PUSH1 0x20 ADD DUP1 DUP4 GT PUSH2 0xD34 JUMPI DUP3 SWAP1 SUB PUSH1 0x1F AND DUP3 ADD SWAP2 JUMPDEST POP POP POP POP POP DUP2 MSTORE PUSH1 0x20 ADD DUP3 PUSH1 0xE ADD DUP1 SLOAD PUSH2 0xD6A SWAP1 PUSH2 0x27E6 JUMP JUMPDEST DUP1 PUSH1 0x1F ADD PUSH1 0x20 DUP1 SWAP2 DIV MUL PUSH1 0x20 ADD PUSH1 0x40 MLOAD SWAP1 DUP2 ADD PUSH1 0x40 MSTORE DUP1 SWAP3 SWAP2 SWAP1 DUP2 DUP2 MSTORE PUSH1 0x20 ADD DUP3 DUP1 SLOAD PUSH2 0xD96 SWAP1 PUSH2 0x27E6 JUMP JUMPDEST DUP1 ISZERO PUSH2 0xDE3 JUMPI DUP1 PUSH1 0x1F LT PUSH2 0xDB8 JUMPI PUSH2 0x100 DUP1 DUP4 SLOAD DIV MUL DUP4 MSTORE SWAP2 PUSH1 0x20 ADD SWAP2 PUSH2 0xDE3 JUMP JUMPDEST DUP3 ADD SWAP2 SWAP1 PUSH1 0x0 MSTORE PUSH1 0x20 PUSH1 0x0 KECCAK256 SWAP1 JUMPDEST DUP2 SLOAD DUP2 MSTORE SWAP1 PUSH1 0x1 ADD SWAP1 PUSH1 0x20 ADD DUP1 DUP4 GT PUSH2 0xDC6 JUMPI DUP3 SWAP1 SUB PUSH1 0x1F AND DUP3 ADD SWAP2 JUMPDEST POP POP POP POP POP DUP2 MSTORE PUSH1 0x20 ADD DUP3 PUSH1 0xF ADD DUP1 SLOAD PUSH2 0xDFC SWAP1 PUSH2 0x27E6 JUMP JUMPDEST DUP1 PUSH1 0x1F ADD PUSH1 0x20 DUP1 SWAP2 DIV MUL PUSH1 0x20 ADD PUSH1 0x40 MLOAD SWAP1 DUP2 ADD PUSH1 0x40 MSTORE DUP1 SWAP3 SWAP2 SWAP1 DUP2 DUP2 MSTORE PUSH1 0x20 ADD DUP3 DUP1 SLOAD PUSH2 0xE28 SWAP1 PUSH2 0x27E6 JUMP JUMPDEST DUP1 ISZERO PUSH2 0xE75 JUMPI DUP1 PUSH1 0x1F LT PUSH2 0xE4A JUMPI PUSH2 0x100 DUP1 DUP4 SLOAD DIV MUL DUP4 MSTORE SWAP2 PUSH1 0x20 ADD SWAP2 PUSH2 0xE75 JUMP JUMPDEST DUP3 ADD SWAP2 SWAP1 PUSH1 0x0 MSTORE PUSH1 0x20 PUSH1 0x0 KECCAK256 SWAP1 JUMPDEST DUP2 SLOAD DUP2 MSTORE SWAP1 PUSH1 0x1 ADD SWAP1 PUSH1 0x20 ADD DUP1 DUP4 GT PUSH2 0xE58 JUMPI DUP3 SWAP1 SUB PUSH1 0x1F AND DUP3 ADD SWAP2 JUMPDEST POP POP POP POP POP DUP2 MSTORE PUSH1 0x20 ADD DUP3 PUSH1 0x10 ADD DUP1 SLOAD DUP1 PUSH1 0x20 MUL PUSH1 0x20 ADD PUSH1 0x40 MLOAD SWAP1 DUP2 ADD PUSH1 0x40 MSTORE DUP1 SWAP3 SWAP2 SWAP1 DUP2 DUP2 MSTORE PUSH1 0x20 ADD PUSH1 0x0 SWAP1 JUMPDEST DUP3 DUP3 LT ISZERO PUSH2 0xF4F JUMPI DUP4 DUP3 SWAP1 PUSH1 0x0 MSTORE PUSH1 0x20 PUSH1 0x0 KECCAK256 ADD DUP1 SLOAD PUSH2 0xEC2 SWAP1 PUSH2 0x27E6 JUMP JUMPDEST DUP1 PUSH1 0x1F ADD PUSH1 0x20 DUP1 SWAP2 DIV MUL PUSH1 0x20 ADD PUSH1 0x40 MLOAD SWAP1 DUP2 ADD PUSH1 0x40 MSTORE DUP1 SWAP3 SWAP2 SWAP1 DUP2 DUP2 MSTORE PUSH1 0x20 ADD DUP3 DUP1 SLOAD PUSH2 0xEEE SWAP1 PUSH2 0x27E6 JUMP JUMPDEST DUP1 ISZERO PUSH2 0xF3B JUMPI DUP1 PUSH1 0x1F LT PUSH2 0xF10 JUMPI PUSH2 0x100 DUP1 DUP4 SLOAD DIV MUL DUP4 MSTORE SWAP2 PUSH1 0x20 ADD SWAP2 PUSH2 0xF3B JUMP JUMPDEST DUP3 ADD SWAP2 SWAP1 PUSH1 0x0 MSTORE PUSH1 0x20 PUSH1 0x0 KECCAK256 SWAP1 JUMPDEST DUP2 SLOAD DUP2 MSTORE SWAP1 PUSH1 0x1 ADD SWAP1 PUSH1 0x20 ADD DUP1 DUP4 GT PUSH2 0xF1E JUMPI DUP3 SWAP1 SUB PUSH1 0x1F AND DUP3 ADD SWAP2 JUMPDEST POP POP POP POP POP DUP2 MSTORE PUSH1 0x20 ADD SWAP1 PUSH1 0x1 ADD SWAP1 PUSH2 0xEA3 JUMP JUMPDEST POP POP POP POP DUP2 MSTORE PUSH1 0x20 ADD DUP3 PUSH1 0x11 ADD DUP1 SLOAD PUSH2 0xF67 SWAP1 PUSH2 0x27E6 JUMP JUMPDEST DUP1 PUSH1 0x1F ADD PUSH1 0x20 DUP1 SWAP2 DIV MUL PUSH1 0x20 ADD PUSH1 0x40 MLOAD SWAP1 DUP2 ADD PUSH1 0x40 MSTORE DUP1 SWAP3 SWAP2 SWAP1 DUP2 DUP2 MSTORE PUSH1 0x20 ADD DUP3 DUP1 SLOAD PUSH2 0xF93 SWAP1 PUSH2 0x27E6 JUMP JUMPDEST DUP1 ISZERO PUSH2 0xFE0 JUMPI DUP1 PUSH1 0x1F LT PUSH2 0xFB5 JUMPI PUSH2 0x100 DUP1 DUP4 SLOAD DIV MUL DUP4 MSTORE SWAP2 PUSH1 0x20 ADD SWAP2 PUSH2 0xFE0 JUMP JUMPDEST DUP3 ADD SWAP2 SWAP1 PUSH1 0x0 MSTORE PUSH1 0x20 PUSH1 0x0 KECCAK256 SWAP1 JUMPDEST DUP2 SLOAD DUP2 MSTORE SWAP1 PUSH1 0x1 ADD SWAP1 PUSH1 0x20 ADD DUP1 DUP4 GT PUSH2 0xFC3 JUMPI DUP3 SWAP1 SUB PUSH1 0x1F AND DUP3 ADD SWAP2 JUMPDEST POP POP POP POP POP DUP2 MSTORE POP SWAP4 POP PUSH1 0x40 MLOAD DUP1 PUSH1 0xA0 ADD PUSH1 0x40 MSTORE DUP1 DUP3 PUSH1 0x6 ADD DUP1 SLOAD PUSH2 0x1004 SWAP1 PUSH2 0x27E6 JUMP JUMPDEST DUP1 PUSH1 0x1F ADD PUSH1 0x20 DUP1 SWAP2 DIV MUL PUSH1 0x20 ADD PUSH1 0x40 MLOAD SWAP1 DUP2 ADD PUSH1 0x40 MSTORE DUP1 SWAP3 SWAP2 SWAP1 DUP2 DUP2 MSTORE PUSH1 0x20 ADD DUP3 DUP1 SLOAD PUSH2 0x1030 SWAP1 PUSH2 0x27E6 JUMP JUMPDEST DUP1 ISZERO PUSH2 0x107D JUMPI DUP1 PUSH1 0x1F LT PUSH2 0x1052 JUMPI PUSH2 0x100 DUP1 DUP4 SLOAD DIV MUL DUP4 MSTORE SWAP2 PUSH1 0x20 ADD SWAP2 PUSH2 0x107D JUMP JUMPDEST DUP3 ADD SWAP2 SWAP1 PUSH1 0x0 MSTORE PUSH1 0x20 PUSH1 0x0 KECCAK256 SWAP1 JUMPDEST DUP2 SLOAD DUP2 MSTORE SWAP1 PUSH1 0x1 ADD SWAP1 PUSH1 0x20 ADD DUP1 DUP4 GT PUSH2 0x1060 JUMPI DUP3 SWAP1 SUB PUSH1 0x1F AND DUP3 ADD SWAP2 JUMPDEST POP POP POP POP POP DUP2 MSTORE PUSH1 0x20 ADD DUP3 PUSH1 0x7 ADD DUP1 SLOAD PUSH2 0x1096 SWAP1 PUSH2 0x27E6 JUMP JUMPDEST DUP1 PUSH1 0x1F ADD PUSH1 0x20 DUP1 SWAP2 DIV MUL PUSH1 0x20 ADD PUSH1 0x40 MLOAD SWAP1 DUP2 ADD PUSH1 0x40 MSTORE DUP1 SWAP3 SWAP2 SWAP1 DUP2 DUP2 MSTORE PUSH1 0x20 ADD DUP3 DUP1 SLOAD PUSH2 0x10C2 SWAP1 PUSH2 0x27E6 JUMP JUMPDEST DUP1 ISZERO PUSH2 0x110F JUMPI DUP1 PUSH1 0x1F LT PUSH2 0x10E4 JUMPI PUSH2 0x100 DUP1 DUP4 SLOAD DIV MUL DUP4 MSTORE SWAP2 PUSH1 0x20 ADD SWAP2 PUSH2 0x110F JUMP JUMPDEST DUP3 ADD SWAP2 SWAP1 PUSH1 0x0 MSTORE PUSH1 0x20 PUSH1 0x0 KECCAK256 SWAP1 JUMPDEST DUP2 SLOAD DUP2 MSTORE SWAP1 PUSH1 0x1 ADD SWAP1 PUSH1 0x20 ADD DUP1 DUP4 GT PUSH2 0x10F2 JUMPI DUP3 SWAP1 SUB PUSH1 0x1F AND DUP3 ADD SWAP2 JUMPDEST POP POP POP POP POP DUP2 MSTORE PUSH1 0x20 ADD DUP3 PUSH1 0x8 ADD DUP1 SLOAD PUSH2 0x1128 SWAP1 PUSH2 0x27E6 JUMP JUMPDEST DUP1 PUSH1 0x1F ADD PUSH1 0x20 DUP1 SWAP2 DIV MUL PUSH1 0x20 ADD PUSH1 0x40 MLOAD SWAP1 DUP2 ADD PUSH1 0x40 MSTORE DUP1 SWAP3 SWAP2 SWAP1 DUP2 DUP2 MSTORE PUSH1 0x20 ADD DUP3 DUP1 SLOAD PUSH2 0x1154 SWAP1 PUSH2 0x27E6 JUMP JUMPDEST DUP1 ISZERO PUSH2 0x11A1 JUMPI DUP1 PUSH1 0x1F LT PUSH2 0x1176 JUMPI PUSH2 0x100 DUP1 DUP4 SLOAD DIV MUL DUP4 MSTORE SWAP2 PUSH1 0x20 ADD SWAP2 PUSH2 0x11A1 JUMP JUMPDEST DUP3 ADD SWAP2 SWAP1 PUSH1 0x0 MSTORE PUSH1 0x20 PUSH1 0x0 KECCAK256 SWAP1 JUMPDEST DUP2 SLOAD DUP2 MSTORE SWAP1 PUSH1 0x1 ADD SWAP1 PUSH1 0x20 ADD DUP1 DUP4 GT PUSH2 0x1184 JUMPI DUP3 SWAP1 SUB PUSH1 0x1F AND DUP3 ADD SWAP2 JUMPDEST POP POP POP POP POP DUP2 MSTORE PUSH1 0x20 ADD DUP3 PUSH1 0x9 ADD DUP1 SLOAD PUSH2 0x11BA SWAP1 PUSH2 0x27E6 JUMP JUMPDEST DUP1 PUSH1 0x1F ADD PUSH1 0x20 DUP1 SWAP2 DIV MUL PUSH1 0x20 ADD PUSH1 0x40 MLOAD SWAP1 DUP2 ADD PUSH1 0x40 MSTORE DUP1 SWAP3 SWAP2 SWAP1 DUP2 DUP2 MSTORE PUSH1 0x20 ADD DUP3 DUP1 SLOAD PUSH2 0x11E6 SWAP1 PUSH2 0x27E6 JUMP JUMPDEST DUP1 ISZERO PUSH2 0x1233 JUMPI DUP1 PUSH1 0x1F LT PUSH2 0x1208 JUMPI PUSH2 0x100 DUP1 DUP4 SLOAD DIV MUL DUP4 MSTORE SWAP2 PUSH1 0x20 ADD SWAP2 PUSH2 0x1233 JUMP JUMPDEST DUP3 ADD SWAP2 SWAP1 PUSH1 0x0 MSTORE PUSH1 0x20 PUSH1 0x0 KECCAK256 SWAP1 JUMPDEST DUP2 SLOAD DUP2 MSTORE SWAP1 PUSH1 0x1 ADD SWAP1 PUSH1 0x20 ADD DUP1 DUP4 GT PUSH2 0x1216 JUMPI DUP3 SWAP1 SUB PUSH1 0x1F AND DUP3 ADD SWAP2 JUMPDEST POP POP POP POP POP DUP2 MSTORE PUSH1 0x20 ADD DUP3 PUSH1 0xA ADD DUP1 SLOAD PUSH2 0x124C SWAP1 PUSH2 0x27E6 JUMP JUMPDEST DUP1 PUSH1 0x1F ADD PUSH1 0x20 DUP1 SWAP2 DIV MUL PUSH1 0x20 ADD PUSH1 0x40 MLOAD SWAP1 DUP2 ADD PUSH1 0x40 MSTORE DUP1 SWAP3 SWAP2 SWAP1 DUP2 DUP2 MSTORE PUSH1 0x20 ADD DUP3 DUP1 SLOAD PUSH2 0x1278 SWAP1 PUSH2 0x27E6 JUMP JUMPDEST DUP1 ISZERO PUSH2 0x12C5 JUMPI DUP1 PUSH1 0x1F LT PUSH2 0x129A JUMPI PUSH2 0x100 DUP1 DUP4 SLOAD DIV MUL DUP4 MSTORE SWAP2 PUSH1 0x20 ADD SWAP2 PUSH2 0x12C5 JUMP JUMPDEST DUP3 ADD SWAP2 SWAP1 PUSH1 0x0 MSTORE PUSH1 0x20 PUSH1 0x0 KECCAK256 SWAP1 JUMPDEST DUP2 SLOAD DUP2 MSTORE SWAP1 PUSH1 0x1 ADD SWAP1 PUSH1 0x20 ADD DUP1 DUP4 GT PUSH2 0x12A8 JUMPI DUP3 SWAP1 SUB PUSH1 0x1F AND DUP3 ADD SWAP2 JUMPDEST POP POP POP POP POP DUP2 MSTORE POP SWAP3 POP DUP1 PUSH1 0x14 ADD PUSH1 0x40 MLOAD DUP1 PUSH1 0xA0 ADD PUSH1 0x40 MSTORE SWAP1 DUP2 PUSH1 0x0 DUP3 ADD PUSH1 0x0 SWAP1 SLOAD SWAP1 PUSH2 0x100 EXP SWAP1 DIV PUSH1 0xFF AND ISZERO ISZERO ISZERO ISZERO DUP2 MSTORE PUSH1 0x20 ADD PUSH1 0x0 DUP3 ADD PUSH1 0x1 SWAP1 SLOAD SWAP1 PUSH2 0x100 EXP SWAP1 DIV PUSH1 0xFF AND ISZERO ISZERO ISZERO ISZERO DUP2 MSTORE PUSH1 0x20 ADD PUSH1 0x0 DUP3 ADD PUSH1 0x2 SWAP1 SLOAD SWAP1 PUSH2 0x100 EXP SWAP1 DIV PUSH1 0xFF AND ISZERO ISZERO ISZERO ISZERO DUP2 MSTORE PUSH1 0x20 ADD PUSH1 0x0 DUP3 ADD PUSH1 0x3 SWAP1 SLOAD SWAP1 PUSH2 0x100 EXP SWAP1 DIV PUSH1 0xFF AND ISZERO ISZERO ISZERO ISZERO DUP2 MSTORE PUSH1 0x20 ADD PUSH1 0x0 DUP3 ADD PUSH1 0x4 SWAP1 SLOAD SWAP1 PUSH2 0x100 EXP SWAP1 DIV PUSH1 0xFF AND ISZERO ISZERO ISZERO ISZERO DUP2 MSTORE POP POP SWAP2 POP POP SWAP2 SWAP4 POP SWAP2 SWAP4 JUMP JUMPDEST PUSH1 0x0 DUP7 PUSH1 0x40 MLOAD PUSH2 0x137F SWAP2 SWAP1 PUSH2 0x2853 JUMP JUMPDEST SWAP1 DUP2 MSTORE PUSH1 0x20 ADD PUSH1 0x40 MLOAD DUP1 SWAP2 SUB SWAP1 KECCAK256 PUSH1 0x12 ADD PUSH1 0x0 SWAP1 SLOAD SWAP1 PUSH2 0x100 EXP SWAP1 DIV PUSH1 0xFF AND PUSH2 0x13DD JUMPI PUSH1 0x40 MLOAD PUSH32 0x8C379A000000000000000000000000000000000000000000000000000000000 DUP2 MSTORE PUSH1 0x4 ADD PUSH2 0x13D4 SWAP1 PUSH2 0x28B6 JUMP JUMPDEST PUSH1 0x40 MLOAD DUP1 SWAP2 SUB SWAP1 REVERT JUMPDEST PUSH1 0x0 DUP1 DUP8 PUSH1 0x40 MLOAD PUSH2 0x13EE SWAP2 SWAP1 PUSH2 0x2853 JUMP JUMPDEST SWAP1 DUP2 MSTORE PUSH1 0x20 ADD PUSH1 0x40 MLOAD DUP1 SWAP2 SUB SWAP1 KECCAK256 SWAP1 POP DUP6 DUP2 PUSH1 0x14 ADD PUSH1 0x0 ADD PUSH1 0x0 PUSH2 0x100 EXP DUP2 SLOAD DUP2 PUSH1 0xFF MUL NOT AND SWAP1 DUP4 ISZERO ISZERO MUL OR SWAP1 SSTORE POP DUP5 DUP2 PUSH1 0x14 ADD PUSH1 0x0 ADD PUSH1 0x1 PUSH2 0x100 EXP DUP2 SLOAD DUP2 PUSH1 0xFF MUL NOT AND SWAP1 DUP4 ISZERO ISZERO MUL OR SWAP1 SSTORE POP DUP4 DUP2 PUSH1 0x14 ADD PUSH1 0x0 ADD PUSH1 0x2 PUSH2 0x100 EXP DUP2 SLOAD DUP2 PUSH1 0xFF MUL NOT AND SWAP1 DUP4 ISZERO ISZERO MUL OR SWAP1 SSTORE POP DUP3 DUP2 PUSH1 0x14 ADD PUSH1 0x0 ADD PUSH1 0x3 PUSH2 0x100 EXP DUP2 SLOAD DUP2 PUSH1 0xFF MUL NOT AND SWAP1 DUP4 ISZERO ISZERO MUL OR SWAP1 SSTORE POP DUP2 DUP2 PUSH1 0x14 ADD PUSH1 0x0 ADD PUSH1 0x4 PUSH2 0x100 EXP DUP2 SLOAD DUP2 PUSH1 0xFF MUL NOT AND SWAP1 DUP4 ISZERO ISZERO MUL OR SWAP1 SSTORE POP POP POP POP POP POP POP POP JUMP JUMPDEST DUP5 PUSH1 0x2 DUP2 PUSH1 0x40 MLOAD PUSH2 0x14B3 SWAP2 SWAP1 PUSH2 0x2853 JUMP JUMPDEST SWAP1 DUP2 MSTORE PUSH1 0x20 ADD PUSH1 0x40 MLOAD DUP1 SWAP2 SUB SWAP1 KECCAK256 PUSH1 0x0 SWAP1 SLOAD SWAP1 PUSH2 0x100 EXP SWAP1 DIV PUSH1 0xFF AND ISZERO PUSH2 0x150F JUMPI PUSH1 0x40 MLOAD PUSH32 0x8C379A000000000000000000000000000000000000000000000000000000000 DUP2 MSTORE PUSH1 0x4 ADD PUSH2 0x1506 SWAP1 PUSH2 0x2C16 JUMP JUMPDEST PUSH1 0x40 MLOAD DUP1 SWAP2 SUB SWAP1 REVERT JUMPDEST PUSH1 0x0 DUP1 DUP8 PUSH1 0x40 MLOAD PUSH2 0x1520 SWAP2 SWAP1 PUSH2 0x2853 JUMP JUMPDEST SWAP1 DUP2 MSTORE PUSH1 0x20 ADD PUSH1 0x40 MLOAD DUP1 SWAP2 SUB SWAP1 KECCAK256 SWAP1 POP DUP6 PUSH1 0x0 ADD MLOAD DUP2 PUSH1 0x0 ADD SWAP1 DUP2 PUSH2 0x1545 SWAP2 SWAP1 PUSH2 0x2A8C JUMP JUMPDEST POP DUP6 PUSH1 0x20 ADD MLOAD DUP2 PUSH1 0x1 ADD SWAP1 DUP2 PUSH2 0x155B SWAP2 SWAP1 PUSH2 0x2A8C JUMP JUMPDEST POP DUP6 PUSH1 0x40 ADD MLOAD DUP2 PUSH1 0x2 ADD SWAP1 DUP2 PUSH2 0x1571 SWAP2 SWAP1 PUSH2 0x2A8C JUMP JUMPDEST POP DUP6 PUSH1 0x60 ADD MLOAD DUP2 PUSH1 0x3 ADD SWAP1 DUP2 PUSH2 0x1587 SWAP2 SWAP1 PUSH2 0x2A8C JUMP JUMPDEST POP DUP6 PUSH1 0x80 ADD MLOAD DUP2 PUSH1 0x4 ADD SWAP1 DUP2 PUSH2 0x159D SWAP2 SWAP1 PUSH2 0x2A8C JUMP JUMPDEST POP DUP6 PUSH1 0xC0 ADD MLOAD DUP2 PUSH1 0xB ADD SWAP1 DUP2 PUSH2 0x15B3 SWAP2 SWAP1 PUSH2 0x2A8C JUMP JUMPDEST POP DUP5 PUSH1 0x0 ADD MLOAD DUP2 PUSH1 0xC ADD SWAP1 DUP2 PUSH2 0x15C9 SWAP2 SWAP1 PUSH2 0x2A8C JUMP JUMPDEST POP DUP5 PUSH1 0x20 ADD MLOAD DUP2 PUSH1 0xD ADD SWAP1 DUP2 PUSH2 0x15DF SWAP2 SWAP1 PUSH2 0x2A8C JUMP JUMPDEST POP DUP6 PUSH1 0xA0 ADD MLOAD DUP2 PUSH1 0x5 ADD SWAP1 DUP2 PUSH2 0x15F5 SWAP2 SWAP1 PUSH2 0x2A8C JUMP JUMPDEST POP DUP5 PUSH1 0x40 ADD MLOAD DUP2 PUSH1 0xE ADD SWAP1 DUP2 PUSH2 0x160B SWAP2 SWAP1 PUSH2 0x2A8C JUMP JUMPDEST POP DUP4 PUSH1 0x0 ADD MLOAD DUP2 PUSH1 0x6 ADD SWAP1 DUP2 PUSH2 0x1621 SWAP2 SWAP1 PUSH2 0x2A8C JUMP JUMPDEST POP DUP4 PUSH1 0x20 ADD MLOAD DUP2 PUSH1 0x7 ADD SWAP1 DUP2 PUSH2 0x1637 SWAP2 SWAP1 PUSH2 0x2A8C JUMP JUMPDEST POP DUP4 PUSH1 0x40 ADD MLOAD DUP2 PUSH1 0x8 ADD SWAP1 DUP2 PUSH2 0x164D SWAP2 SWAP1 PUSH2 0x2A8C JUMP JUMPDEST POP DUP4 PUSH1 0x60 ADD MLOAD DUP2 PUSH1 0x9 ADD SWAP1 DUP2 PUSH2 0x1663 SWAP2 SWAP1 PUSH2 0x2A8C JUMP JUMPDEST POP DUP4 PUSH1 0x80 ADD MLOAD DUP2 PUSH1 0xA ADD SWAP1 DUP2 PUSH2 0x1679 SWAP2 SWAP1 PUSH2 0x2A8C JUMP JUMPDEST POP DUP5 PUSH1 0x60 ADD MLOAD DUP2 PUSH1 0xF ADD SWAP1 DUP2 PUSH2 0x168F SWAP2 SWAP1 PUSH2 0x2A8C JUMP JUMPDEST POP DUP5 PUSH1 0x80 ADD MLOAD DUP2 PUSH1 0x10 ADD SWAP1 DUP1 MLOAD SWAP1 PUSH1 0x20 ADD SWAP1 PUSH2 0x16AC SWAP3 SWAP2 SWAP1 PUSH2 0x184E JUMP JUMPDEST POP DUP5 PUSH1 0xA0 ADD MLOAD DUP2 PUSH1 0x11 ADD SWAP1 DUP2 PUSH2 0x16C2 SWAP2 SWAP1 PUSH2 0x2A8C JUMP JUMPDEST POP PUSH1 0x1 DUP2 PUSH1 0x12 ADD PUSH1 0x0 PUSH2 0x100 EXP DUP2 SLOAD DUP2 PUSH1 0xFF MUL NOT AND SWAP1 DUP4 ISZERO ISZERO MUL OR SWAP1 SSTORE POP DUP3 DUP2 PUSH1 0x14 ADD PUSH1 0x0 DUP3 ADD MLOAD DUP2 PUSH1 0x0 ADD PUSH1 0x0 PUSH2 0x100 EXP DUP2 SLOAD DUP2 PUSH1 0xFF MUL NOT AND SWAP1 DUP4 ISZERO ISZERO MUL OR SWAP1 SSTORE POP PUSH1 0x20 DUP3 ADD MLOAD DUP2 PUSH1 0x0 ADD PUSH1 0x1 PUSH2 0x100 EXP DUP2 SLOAD DUP2 PUSH1 0xFF MUL NOT AND SWAP1 DUP4 ISZERO ISZERO MUL OR SWAP1 SSTORE POP PUSH1 0x40 DUP3 ADD MLOAD DUP2 PUSH1 0x0 ADD PUSH1 0x2 PUSH2 0x100 EXP DUP2 SLOAD DUP2 PUSH1 0xFF MUL NOT AND SWAP1 DUP4 ISZERO ISZERO MUL OR SWAP1 SSTORE POP PUSH1 0x60 DUP3 ADD MLOAD DUP2 PUSH1 0x0 ADD PUSH1 0x3 PUSH2 0x100 EXP DUP2 SLOAD DUP2 PUSH1 0xFF MUL NOT AND SWAP1 DUP4 ISZERO ISZERO MUL OR SWAP1 SSTORE POP PUSH1 0x80 DUP3 ADD MLOAD DUP2 PUSH1 0x0 ADD PUSH1 0x4 PUSH2 0x100 EXP DUP2 SLOAD DUP2 PUSH1 0xFF MUL NOT AND SWAP1 DUP4 ISZERO ISZERO MUL OR SWAP1 SSTORE POP SWAP1 POP POP PUSH1 0x1 PUSH1 0x2 DUP9 PUSH1 0x40 MLOAD PUSH2 0x179A SWAP2 SWAP1 PUSH2 0x2853 JUMP JUMPDEST SWAP1 DUP2 MSTORE PUSH1 0x20 ADD PUSH1 0x40 MLOAD DUP1 SWAP2 SUB SWAP1 KECCAK256 PUSH1 0x0 PUSH2 0x100 EXP DUP2 SLOAD DUP2 PUSH1 0xFF MUL NOT AND SWAP1 DUP4 ISZERO ISZERO MUL OR SWAP1 SSTORE POP DUP7 PUSH1 0x1 PUSH1 0x0 CALLER PUSH20 0xFFFFFFFFFFFFFFFFFFFFFFFFFFFFFFFFFFFFFFFF AND PUSH20 0xFFFFFFFFFFFFFFFFFFFFFFFFFFFFFFFFFFFFFFFF AND DUP2 MSTORE PUSH1 0x20 ADD SWAP1 DUP2 MSTORE PUSH1 0x20 ADD PUSH1 0x0 KECCAK256 SWAP1 DUP2 PUSH2 0x180B SWAP2 SWAP1 PUSH2 0x2A8C JUMP JUMPDEST POP POP POP POP POP POP POP POP JUMP JUMPDEST PUSH1 0x40 MLOAD DUP1 PUSH1 0xA0 ADD PUSH1 0x40 MSTORE DUP1 PUSH1 0x0 ISZERO ISZERO DUP2 MSTORE PUSH1 0x20 ADD PUSH1 0x0 ISZERO ISZERO DUP2 MSTORE PUSH1 0x20 ADD PUSH1 0x0 ISZERO ISZERO DUP2 MSTORE PUSH1 0x20 ADD PUSH1 0x0 ISZERO ISZERO DUP2 MSTORE PUSH1 0x20 ADD PUSH1 0x0 ISZERO ISZERO DUP2 MSTORE POP SWAP1 JUMP JUMPDEST DUP3 DUP1 SLOAD DUP3 DUP3 SSTORE SWAP1 PUSH1 0x0 MSTORE PUSH1 0x20 PUSH1 0x0 KECCAK256 SWAP1 DUP2 ADD SWAP3 DUP3 ISZERO PUSH2 0x1896 JUMPI SWAP2 PUSH1 0x20 MUL DUP3 ADD JUMPDEST DUP3 DUP2 GT ISZERO PUSH2 0x1895 JUMPI DUP3 MLOAD DUP3 SWAP1 DUP2 PUSH2 0x1885 SWAP2 SWAP1 PUSH2 0x2A8C JUMP JUMPDEST POP SWAP2 PUSH1 0x20 ADD SWAP2 SWAP1 PUSH1 0x1 ADD SWAP1 PUSH2 0x186E JUMP JUMPDEST JUMPDEST POP SWAP1 POP PUSH2 0x18A3 SWAP2 SWAP1 PUSH2 0x1949 JUMP JUMPDEST POP SWAP1 JUMP JUMPDEST PUSH1 0x40 MLOAD DUP1 PUSH1 0xE0 ADD PUSH1 0x40 MSTORE DUP1 PUSH1 0x60 DUP2 MSTORE PUSH1 0x20 ADD PUSH1 0x60 DUP2 MSTORE PUSH1 0x20 ADD PUSH1 0x60 DUP2 MSTORE PUSH1 0x20 ADD PUSH1 0x60 DUP2 MSTORE PUSH1 0x20 ADD PUSH1 0x60 DUP2 MSTORE PUSH1 0x20 ADD PUSH1 0x60 DUP2 MSTORE PUSH1 0x20 ADD PUSH1 0x60 DUP2 MSTORE POP SWAP1 JUMP JUMPDEST PUSH1 0x40 MLOAD DUP1 PUSH1 0xC0 ADD PUSH1 0x40 MSTORE DUP1 PUSH1 0x60 DUP2 MSTORE PUSH1 0x20 ADD PUSH1 0x60 DUP2 MSTORE PUSH1 0x20 ADD PUSH1 0x60 DUP2 MSTORE PUSH1 0x20 ADD PUSH1 0x60 DUP2 MSTORE PUSH1 0x20 ADD PUSH1 0x60 DUP2 MSTORE PUSH1 0x20 ADD PUSH1 0x60 DUP2 MSTORE POP SWAP1 JUMP JUMPDEST PUSH1 0x40 MLOAD DUP1 PUSH1 0xA0 ADD PUSH1 0x40 MSTORE DUP1 PUSH1 0x60 DUP2 MSTORE PUSH1 0x20 ADD PUSH1 0x60 DUP2 MSTORE PUSH1 0x20 ADD PUSH1 0x60 DUP2 MSTORE PUSH1 0x20 ADD PUSH1 0x60 DUP2 MSTORE PUSH1 0x20 ADD PUSH1 0x60 DUP2 MSTORE POP SWAP1 JUMP JUMPDEST JUMPDEST DUP1 DUP3 GT ISZERO PUSH2 0x1969 JUMPI PUSH1 0x0 DUP2 DUP2 PUSH2 0x1960 SWAP2 SWAP1 PUSH2 0x196D JUMP JUMPDEST POP PUSH1 0x1 ADD PUSH2 0x194A JUMP JUMPDEST POP SWAP1 JUMP JUMPDEST POP DUP1 SLOAD PUSH2 0x1979 SWAP1 PUSH2 0x27E6 JUMP JUMPDEST PUSH1 0x0 DUP3 SSTORE DUP1 PUSH1 0x1F LT PUSH2 0x198B JUMPI POP PUSH2 0x19AA JUMP JUMPDEST PUSH1 0x1F ADD PUSH1 0x20 SWAP1 DIV SWAP1 PUSH1 0x0 MSTORE PUSH1 0x20 PUSH1 0x0 KECCAK256 SWAP1 DUP2 ADD SWAP1 PUSH2 0x19A9 SWAP2 SWAP1 PUSH2 0x19AD JUMP JUMPDEST JUMPDEST POP JUMP JUMPDEST JUMPDEST DUP1 DUP3 GT ISZERO PUSH2 0x19C6 JUMPI PUSH1 0x0 DUP2 PUSH1 0x0 SWAP1 SSTORE POP PUSH1 0x1 ADD PUSH2 0x19AE JUMP JUMPDEST POP SWAP1 JUMP JUMPDEST PUSH1 0x0 PUSH1 0x40 MLOAD SWAP1 POP SWAP1 JUMP JUMPDEST PUSH1 0x0 DUP1 REVERT JUMPDEST PUSH1 0x0 DUP1 REVERT JUMPDEST PUSH1 0x0 PUSH20 0xFFFFFFFFFFFFFFFFFFFFFFFFFFFFFFFFFFFFFFFF DUP3 AND SWAP1 POP SWAP2 SWAP1 POP JUMP JUMPDEST PUSH1 0x0 PUSH2 0x1A09 DUP3 PUSH2 0x19DE JUMP JUMPDEST SWAP1 POP SWAP2 SWAP1 POP JUMP JUMPDEST PUSH2 0x1A19 DUP2 PUSH2 0x19FE JUMP JUMPDEST DUP2 EQ PUSH2 0x1A24 JUMPI PUSH1 0x0 DUP1 REVERT JUMPDEST POP JUMP JUMPDEST PUSH1 0x0 DUP2 CALLDATALOAD SWAP1 POP PUSH2 0x1A36 DUP2 PUSH2 0x1A10 JUMP JUMPDEST SWAP3 SWAP2 POP POP JUMP JUMPDEST PUSH1 0x0 PUSH1 0x20 DUP3 DUP5 SUB SLT ISZERO PUSH2 0x1A52 JUMPI PUSH2 0x1A51 PUSH2 0x19D4 JUMP JUMPDEST JUMPDEST PUSH1 0x0 PUSH2 0x1A60 DUP5 DUP3 DUP6 ADD PUSH2 0x1A27 JUMP JUMPDEST SWAP2 POP POP SWAP3 SWAP2 POP POP JUMP JUMPDEST PUSH1 0x0 DUP2 MLOAD SWAP1 POP SWAP2 SWAP1 POP JUMP JUMPDEST PUSH1 0x0 DUP3 DUP3 MSTORE PUSH1 0x20 DUP3 ADD SWAP1 POP SWAP3 SWAP2 POP POP JUMP JUMPDEST PUSH1 0x0 JUMPDEST DUP4 DUP2 LT ISZERO PUSH2 0x1AA3 JUMPI DUP1 DUP3 ADD MLOAD DUP2 DUP5 ADD MSTORE PUSH1 0x20 DUP2 ADD SWAP1 POP PUSH2 0x1A88 JUMP JUMPDEST PUSH1 0x0 DUP5 DUP5 ADD MSTORE POP POP POP POP JUMP JUMPDEST PUSH1 0x0 PUSH1 0x1F NOT PUSH1 0x1F DUP4 ADD AND SWAP1 POP SWAP2 SWAP1 POP JUMP JUMPDEST PUSH1 0x0 PUSH2 0x1ACB DUP3 PUSH2 0x1A69 JUMP JUMPDEST PUSH2 0x1AD5 DUP2 DUP6 PUSH2 0x1A74 JUMP JUMPDEST SWAP4 POP PUSH2 0x1AE5 DUP2 DUP6 PUSH1 0x20 DUP7 ADD PUSH2 0x1A85 JUMP JUMPDEST PUSH2 0x1AEE DUP2 PUSH2 0x1AAF JUMP JUMPDEST DUP5 ADD SWAP2 POP POP SWAP3 SWAP2 POP POP JUMP JUMPDEST PUSH1 0x0 PUSH1 0x20 DUP3 ADD SWAP1 POP DUP2 DUP2 SUB PUSH1 0x0 DUP4 ADD MSTORE PUSH2 0x1B13 DUP2 DUP5 PUSH2 0x1AC0 JUMP JUMPDEST SWAP1 POP SWAP3 SWAP2 POP POP JUMP JUMPDEST PUSH1 0x0 DUP1 REVERT JUMPDEST PUSH1 0x0 DUP1 REVERT JUMPDEST PUSH32 0x4E487B7100000000000000000000000000000000000000000000000000000000 PUSH1 0x0 MSTORE PUSH1 0x41 PUSH1 0x4 MSTORE PUSH1 0x24 PUSH1 0x0 REVERT JUMPDEST PUSH2 0x1B5D DUP3 PUSH2 0x1AAF JUMP JUMPDEST DUP2 ADD DUP2 DUP2 LT PUSH8 0xFFFFFFFFFFFFFFFF DUP3 GT OR ISZERO PUSH2 0x1B7C JUMPI PUSH2 0x1B7B PUSH2 0x1B25 JUMP JUMPDEST JUMPDEST DUP1 PUSH1 0x40 MSTORE POP POP POP JUMP JUMPDEST PUSH1 0x0 PUSH2 0x1B8F PUSH2 0x19CA JUMP JUMPDEST SWAP1 POP PUSH2 0x1B9B DUP3 DUP3 PUSH2 0x1B54 JUMP JUMPDEST SWAP2 SWAP1 POP JUMP JUMPDEST PUSH1 0x0 PUSH8 0xFFFFFFFFFFFFFFFF DUP3 GT ISZERO PUSH2 0x1BBB JUMPI PUSH2 0x1BBA PUSH2 0x1B25 JUMP JUMPDEST JUMPDEST PUSH2 0x1BC4 DUP3 PUSH2 0x1AAF JUMP JUMPDEST SWAP1 POP PUSH1 0x20 DUP2 ADD SWAP1 POP SWAP2 SWAP1 POP JUMP JUMPDEST DUP3 DUP2 DUP4 CALLDATACOPY PUSH1 0x0 DUP4 DUP4 ADD MSTORE POP POP POP JUMP JUMPDEST PUSH1 0x0 PUSH2 0x1BF3 PUSH2 0x1BEE DUP5 PUSH2 0x1BA0 JUMP JUMPDEST PUSH2 0x1B85 JUMP JUMPDEST SWAP1 POP DUP3 DUP2 MSTORE PUSH1 0x20 DUP2 ADD DUP5 DUP5 DUP5 ADD GT ISZERO PUSH2 0x1C0F JUMPI PUSH2 0x1C0E PUSH2 0x1B20 JUMP JUMPDEST JUMPDEST PUSH2 0x1C1A DUP5 DUP3 DUP6 PUSH2 0x1BD1 JUMP JUMPDEST POP SWAP4 SWAP3 POP POP POP JUMP JUMPDEST PUSH1 0x0 DUP3 PUSH1 0x1F DUP4 ADD SLT PUSH2 0x1C37 JUMPI PUSH2 0x1C36 PUSH2 0x1B1B JUMP JUMPDEST JUMPDEST DUP2 CALLDATALOAD PUSH2 0x1C47 DUP5 DUP3 PUSH1 0x20 DUP7 ADD PUSH2 0x1BE0 JUMP JUMPDEST SWAP2 POP POP SWAP3 SWAP2 POP POP JUMP JUMPDEST PUSH1 0x0 PUSH1 0x20 DUP3 DUP5 SUB SLT ISZERO PUSH2 0x1C66 JUMPI PUSH2 0x1C65 PUSH2 0x19D4 JUMP JUMPDEST JUMPDEST PUSH1 0x0 DUP3 ADD CALLDATALOAD PUSH8 0xFFFFFFFFFFFFFFFF DUP2 GT ISZERO PUSH2 0x1C84 JUMPI PUSH2 0x1C83 PUSH2 0x19D9 JUMP JUMPDEST JUMPDEST PUSH2 0x1C90 DUP5 DUP3 DUP6 ADD PUSH2 0x1C22 JUMP JUMPDEST SWAP2 POP POP SWAP3 SWAP2 POP POP JUMP JUMPDEST PUSH1 0x0 DUP2 ISZERO ISZERO SWAP1 POP SWAP2 SWAP1 POP JUMP JUMPDEST PUSH2 0x1CAE DUP2 PUSH2 0x1C99 JUMP JUMPDEST DUP3 MSTORE POP POP JUMP JUMPDEST PUSH1 0xA0 DUP3 ADD PUSH1 0x0 DUP3 ADD MLOAD PUSH2 0x1CCA PUSH1 0x0 DUP6 ADD DUP3 PUSH2 0x1CA5 JUMP JUMPDEST POP PUSH1 0x20 DUP3 ADD MLOAD PUSH2 0x1CDD PUSH1 0x20 DUP6 ADD DUP3 PUSH2 0x1CA5 JUMP JUMPDEST POP PUSH1 0x40 DUP3 ADD MLOAD PUSH2 0x1CF0 PUSH1 0x40 DUP6 ADD DUP3 PUSH2 0x1CA5 JUMP JUMPDEST POP PUSH1 0x60 DUP3 ADD MLOAD PUSH2 0x1D03 PUSH1 0x60 DUP6 ADD DUP3 PUSH2 0x1CA5 JUMP JUMPDEST POP PUSH1 0x80 DUP3 ADD MLOAD PUSH2 0x1D16 PUSH1 0x80 DUP6 ADD DUP3 PUSH2 0x1CA5 JUMP JUMPDEST POP POP POP POP JUMP JUMPDEST PUSH1 0x0 PUSH1 0xA0 DUP3 ADD SWAP1 POP PUSH2 0x1D31 PUSH1 0x0 DUP4 ADD DUP5 PUSH2 0x1CB4 JUMP JUMPDEST SWAP3 SWAP2 POP POP JUMP JUMPDEST PUSH1 0x0 DUP1 REVERT JUMPDEST PUSH1 0x0 DUP1 REVERT JUMPDEST PUSH1 0x0 PUSH1 0xE0 DUP3 DUP5 SUB SLT ISZERO PUSH2 0x1D57 JUMPI PUSH2 0x1D56 PUSH2 0x1D37 JUMP JUMPDEST JUMPDEST PUSH2 0x1D61 PUSH1 0xE0 PUSH2 0x1B85 JUMP JUMPDEST SWAP1 POP PUSH1 0x0 DUP3 ADD CALLDATALOAD PUSH8 0xFFFFFFFFFFFFFFFF DUP2 GT ISZERO PUSH2 0x1D81 JUMPI PUSH2 0x1D80 PUSH2 0x1D3C JUMP JUMPDEST JUMPDEST PUSH2 0x1D8D DUP5 DUP3 DUP6 ADD PUSH2 0x1C22 JUMP JUMPDEST PUSH1 0x0 DUP4 ADD MSTORE POP PUSH1 0x20 DUP3 ADD CALLDATALOAD PUSH8 0xFFFFFFFFFFFFFFFF DUP2 GT ISZERO PUSH2 0x1DB1 JUMPI PUSH2 0x1DB0 PUSH2 0x1D3C JUMP JUMPDEST JUMPDEST PUSH2 0x1DBD DUP5 DUP3 DUP6 ADD PUSH2 0x1C22 JUMP JUMPDEST PUSH1 0x20 DUP4 ADD MSTORE POP PUSH1 0x40 DUP3 ADD CALLDATALOAD PUSH8 0xFFFFFFFFFFFFFFFF DUP2 GT ISZERO PUSH2 0x1DE1 JUMPI PUSH2 0x1DE0 PUSH2 0x1D3C JUMP JUMPDEST JUMPDEST PUSH2 0x1DED DUP5 DUP3 DUP6 ADD PUSH2 0x1C22 JUMP JUMPDEST PUSH1 0x40 DUP4 ADD MSTORE POP PUSH1 0x60 DUP3 ADD CALLDATALOAD PUSH8 0xFFFFFFFFFFFFFFFF DUP2 GT ISZERO PUSH2 0x1E11 JUMPI PUSH2 0x1E10 PUSH2 0x1D3C JUMP JUMPDEST JUMPDEST PUSH2 0x1E1D DUP5 DUP3 DUP6 ADD PUSH2 0x1C22 JUMP JUMPDEST PUSH1 0x60 DUP4 ADD MSTORE POP PUSH1 0x80 DUP3 ADD CALLDATALOAD PUSH8 0xFFFFFFFFFFFFFFFF DUP2 GT ISZERO PUSH2 0x1E41 JUMPI PUSH2 0x1E40 PUSH2 0x1D3C JUMP JUMPDEST JUMPDEST PUSH2 0x1E4D DUP5 DUP3 DUP6 ADD PUSH2 0x1C22 JUMP JUMPDEST PUSH1 0x80 DUP4 ADD MSTORE POP PUSH1 0xA0 DUP3 ADD CALLDATALOAD PUSH8 0xFFFFFFFFFFFFFFFF DUP2 GT ISZERO PUSH2 0x1E71 JUMPI PUSH2 0x1E70 PUSH2 0x1D3C JUMP JUMPDEST JUMPDEST PUSH2 0x1E7D DUP5 DUP3 DUP6 ADD PUSH2 0x1C22 JUMP JUMPDEST PUSH1 0xA0 DUP4 ADD MSTORE POP PUSH1 0xC0 DUP3 ADD CALLDATALOAD PUSH8 0xFFFFFFFFFFFFFFFF DUP2 GT ISZERO PUSH2 0x1EA1 JUMPI PUSH2 0x1EA0 PUSH2 0x1D3C JUMP JUMPDEST JUMPDEST PUSH2 0x1EAD DUP5 DUP3 DUP6 ADD PUSH2 0x1C22 JUMP JUMPDEST PUSH1 0xC0 DUP4 ADD MSTORE POP SWAP3 SWAP2 POP POP JUMP JUMPDEST PUSH1 0x0 PUSH8 0xFFFFFFFFFFFFFFFF DUP3 GT ISZERO PUSH2 0x1ED4 JUMPI PUSH2 0x1ED3 PUSH2 0x1B25 JUMP JUMPDEST JUMPDEST PUSH1 0x20 DUP3 MUL SWAP1 POP PUSH1 0x20 DUP2 ADD SWAP1 POP SWAP2 SWAP1 POP JUMP JUMPDEST PUSH1 0x0 DUP1 REVERT JUMPDEST PUSH1 0x0 PUSH2 0x1EFD PUSH2 0x1EF8 DUP5 PUSH2 0x1EB9 JUMP JUMPDEST PUSH2 0x1B85 JUMP JUMPDEST SWAP1 POP DUP1 DUP4 DUP3 MSTORE PUSH1 0x20 DUP3 ADD SWAP1 POP PUSH1 0x20 DUP5 MUL DUP4 ADD DUP6 DUP2 GT ISZERO PUSH2 0x1F20 JUMPI PUSH2 0x1F1F PUSH2 0x1EE5 JUMP JUMPDEST JUMPDEST DUP4 JUMPDEST DUP2 DUP2 LT ISZERO PUSH2 0x1F67 JUMPI DUP1 CALLDATALOAD PUSH8 0xFFFFFFFFFFFFFFFF DUP2 GT ISZERO PUSH2 0x1F45 JUMPI PUSH2 0x1F44 PUSH2 0x1B1B JUMP JUMPDEST JUMPDEST DUP1 DUP7 ADD PUSH2 0x1F52 DUP10 DUP3 PUSH2 0x1C22 JUMP JUMPDEST DUP6 MSTORE PUSH1 0x20 DUP6 ADD SWAP5 POP POP POP PUSH1 0x20 DUP2 ADD SWAP1 POP PUSH2 0x1F22 JUMP JUMPDEST POP POP POP SWAP4 SWAP3 POP POP POP JUMP JUMPDEST PUSH1 0x0 DUP3 PUSH1 0x1F DUP4 ADD SLT PUSH2 0x1F86 JUMPI PUSH2 0x1F85 PUSH2 0x1B1B JUMP JUMPDEST JUMPDEST DUP2 CALLDATALOAD PUSH2 0x1F96 DUP5 DUP3 PUSH1 0x20 DUP7 ADD PUSH2 0x1EEA JUMP JUMPDEST SWAP2 POP POP SWAP3 SWAP2 POP POP JUMP JUMPDEST PUSH1 0x0 PUSH1 0xC0 DUP3 DUP5 SUB SLT ISZERO PUSH2 0x1FB5 JUMPI PUSH2 0x1FB4 PUSH2 0x1D37 JUMP JUMPDEST JUMPDEST PUSH2 0x1FBF PUSH1 0xC0 PUSH2 0x1B85 JUMP JUMPDEST SWAP1 POP PUSH1 0x0 DUP3 ADD CALLDATALOAD PUSH8 0xFFFFFFFFFFFFFFFF DUP2 GT ISZERO PUSH2 0x1FDF JUMPI PUSH2 0x1FDE PUSH2 0x1D3C JUMP JUMPDEST JUMPDEST PUSH2 0x1FEB DUP5 DUP3 DUP6 ADD PUSH2 0x1C22 JUMP JUMPDEST PUSH1 0x0 DUP4 ADD MSTORE POP PUSH1 0x20 DUP3 ADD CALLDATALOAD PUSH8 0xFFFFFFFFFFFFFFFF DUP2 GT ISZERO PUSH2 0x200F JUMPI PUSH2 0x200E PUSH2 0x1D3C JUMP JUMPDEST JUMPDEST PUSH2 0x201B DUP5 DUP3 DUP6 ADD PUSH2 0x1C22 JUMP JUMPDEST PUSH1 0x20 DUP4 ADD MSTORE POP PUSH1 0x40 DUP3 ADD CALLDATALOAD PUSH8 0xFFFFFFFFFFFFFFFF DUP2 GT ISZERO PUSH2 0x203F JUMPI PUSH2 0x203E PUSH2 0x1D3C JUMP JUMPDEST JUMPDEST PUSH2 0x204B DUP5 DUP3 DUP6 ADD PUSH2 0x1C22 JUMP JUMPDEST PUSH1 0x40 DUP4 ADD MSTORE POP PUSH1 0x60 DUP3 ADD CALLDATALOAD PUSH8 0xFFFFFFFFFFFFFFFF DUP2 GT ISZERO PUSH2 0x206F JUMPI PUSH2 0x206E PUSH2 0x1D3C JUMP JUMPDEST JUMPDEST PUSH2 0x207B DUP5 DUP3 DUP6 ADD PUSH2 0x1C22 JUMP JUMPDEST PUSH1 0x60 DUP4 ADD MSTORE POP PUSH1 0x80 DUP3 ADD CALLDATALOAD PUSH8 0xFFFFFFFFFFFFFFFF DUP2 GT ISZERO PUSH2 0x209F JUMPI PUSH2 0x209E PUSH2 0x1D3C JUMP JUMPDEST JUMPDEST PUSH2 0x20AB DUP5 DUP3 DUP6 ADD PUSH2 0x1F71 JUMP JUMPDEST PUSH1 0x80 DUP4 ADD MSTORE POP PUSH1 0xA0 DUP3 ADD CALLDATALOAD PUSH8 0xFFFFFFFFFFFFFFFF DUP2 GT ISZERO PUSH2 0x20CF JUMPI PUSH2 0x20CE PUSH2 0x1D3C JUMP JUMPDEST JUMPDEST PUSH2 0x20DB DUP5 DUP3 DUP6 ADD PUSH2 0x1C22 JUMP JUMPDEST PUSH1 0xA0 DUP4 ADD MSTORE POP SWAP3 SWAP2 POP POP JUMP JUMPDEST PUSH1 0x0 PUSH1 0xA0 DUP3 DUP5 SUB SLT ISZERO PUSH2 0x20FD JUMPI PUSH2 0x20FC PUSH2 0x1D37 JUMP JUMPDEST JUMPDEST PUSH2 0x2107 PUSH1 0xA0 PUSH2 0x1B85 JUMP JUMPDEST SWAP1 POP PUSH1 0x0 DUP3 ADD CALLDATALOAD PUSH8 0xFFFFFFFFFFFFFFFF DUP2 GT ISZERO PUSH2 0x2127 JUMPI PUSH2 0x2126 PUSH2 0x1D3C JUMP JUMPDEST JUMPDEST PUSH2 0x2133 DUP5 DUP3 DUP6 ADD PUSH2 0x1C22 JUMP JUMPDEST PUSH1 0x0 DUP4 ADD MSTORE POP PUSH1 0x20 DUP3 ADD CALLDATALOAD PUSH8 0xFFFFFFFFFFFFFFFF DUP2 GT ISZERO PUSH2 0x2157 JUMPI PUSH2 0x2156 PUSH2 0x1D3C JUMP JUMPDEST JUMPDEST PUSH2 0x2163 DUP5 DUP3 DUP6 ADD PUSH2 0x1C22 JUMP JUMPDEST PUSH1 0x20 DUP4 ADD MSTORE POP PUSH1 0x40 DUP3 ADD CALLDATALOAD PUSH8 0xFFFFFFFFFFFFFFFF DUP2 GT ISZERO PUSH2 0x2187 JUMPI PUSH2 0x2186 PUSH2 0x1D3C JUMP JUMPDEST JUMPDEST PUSH2 0x2193 DUP5 DUP3 DUP6 ADD PUSH2 0x1C22 JUMP JUMPDEST PUSH1 0x40 DUP4 ADD MSTORE POP PUSH1 0x60 DUP3 ADD CALLDATALOAD PUSH8 0xFFFFFFFFFFFFFFFF DUP2 GT ISZERO PUSH2 0x21B7 JUMPI PUSH2 0x21B6 PUSH2 0x1D3C JUMP JUMPDEST JUMPDEST PUSH2 0x21C3 DUP5 DUP3 DUP6 ADD PUSH2 0x1C22 JUMP JUMPDEST PUSH1 0x60 DUP4 ADD MSTORE POP PUSH1 0x80 DUP3 ADD CALLDATALOAD PUSH8 0xFFFFFFFFFFFFFFFF DUP2 GT ISZERO PUSH2 0x21E7 JUMPI PUSH2 0x21E6 PUSH2 0x1D3C JUMP JUMPDEST JUMPDEST PUSH2 0x21F3 DUP5 DUP3 DUP6 ADD PUSH2 0x1C22 JUMP JUMPDEST PUSH1 0x80 DUP4 ADD MSTORE POP SWAP3 SWAP2 POP POP JUMP JUMPDEST PUSH2 0x2208 DUP2 PUSH2 0x1C99 JUMP JUMPDEST DUP2 EQ PUSH2 0x2213 JUMPI PUSH1 0x0 DUP1 REVERT JUMPDEST POP JUMP JUMPDEST PUSH1 0x0 DUP2 CALLDATALOAD SWAP1 POP PUSH2 0x2225 DUP2 PUSH2 0x21FF JUMP JUMPDEST SWAP3 SWAP2 POP POP JUMP JUMPDEST PUSH1 0x0 PUSH1 0xA0 DUP3 DUP5 SUB SLT ISZERO PUSH2 0x2241 JUMPI PUSH2 0x2240 PUSH2 0x1D37 JUMP JUMPDEST JUMPDEST PUSH2 0x224B PUSH1 0xA0 PUSH2 0x1B85 JUMP JUMPDEST SWAP1 POP PUSH1 0x0 PUSH2 0x225B DUP5 DUP3 DUP6 ADD PUSH2 0x2216 JUMP JUMPDEST PUSH1 0x0 DUP4 ADD MSTORE POP PUSH1 0x20 PUSH2 0x226F DUP5 DUP3 DUP6 ADD PUSH2 0x2216 JUMP JUMPDEST PUSH1 0x20 DUP4 ADD MSTORE POP PUSH1 0x40 PUSH2 0x2283 DUP5 DUP3 DUP6 ADD PUSH2 0x2216 JUMP JUMPDEST PUSH1 0x40 DUP4 ADD MSTORE POP PUSH1 0x60 PUSH2 0x2297 DUP5 DUP3 DUP6 ADD PUSH2 0x2216 JUMP JUMPDEST PUSH1 0x60 DUP4 ADD MSTORE POP PUSH1 0x80 PUSH2 0x22AB DUP5 DUP3 DUP6 ADD PUSH2 0x2216 JUMP JUMPDEST PUSH1 0x80 DUP4 ADD MSTORE POP SWAP3 SWAP2 POP POP JUMP JUMPDEST PUSH1 0x0 DUP1 PUSH1 0x0 DUP1 PUSH1 0x0 PUSH2 0x120 DUP7 DUP9 SUB SLT ISZERO PUSH2 0x22D4 JUMPI PUSH2 0x22D3 PUSH2 0x19D4 JUMP JUMPDEST JUMPDEST PUSH1 0x0 DUP7 ADD CALLDATALOAD PUSH8 0xFFFFFFFFFFFFFFFF DUP2 GT ISZERO PUSH2 0x22F2 JUMPI PUSH2 0x22F1 PUSH2 0x19D9 JUMP JUMPDEST JUMPDEST PUSH2 0x22FE DUP9 DUP3 DUP10 ADD PUSH2 0x1C22 JUMP JUMPDEST SWAP6 POP POP PUSH1 0x20 DUP7 ADD CALLDATALOAD PUSH8 0xFFFFFFFFFFFFFFFF DUP2 GT ISZERO PUSH2 0x231F JUMPI PUSH2 0x231E PUSH2 0x19D9 JUMP JUMPDEST JUMPDEST PUSH2 0x232B DUP9 DUP3 DUP10 ADD PUSH2 0x1D41 JUMP JUMPDEST SWAP5 POP POP PUSH1 0x40 DUP7 ADD CALLDATALOAD PUSH8 0xFFFFFFFFFFFFFFFF DUP2 GT ISZERO PUSH2 0x234C JUMPI PUSH2 0x234B PUSH2 0x19D9 JUMP JUMPDEST JUMPDEST PUSH2 0x2358 DUP9 DUP3 DUP10 ADD PUSH2 0x1F9F JUMP JUMPDEST SWAP4 POP POP PUSH1 0x60 DUP7 ADD CALLDATALOAD PUSH8 0xFFFFFFFFFFFFFFFF DUP2 GT ISZERO PUSH2 0x2379 JUMPI PUSH2 0x2378 PUSH2 0x19D9 JUMP JUMPDEST JUMPDEST PUSH2 0x2385 DUP9 DUP3 DUP10 ADD PUSH2 0x20E7 JUMP JUMPDEST SWAP3 POP POP PUSH1 0x80 PUSH2 0x2396 DUP9 DUP3 DUP10 ADD PUSH2 0x222B JUMP JUMPDEST SWAP2 POP POP SWAP3 SWAP6 POP SWAP3 SWAP6 SWAP1 SWAP4 POP JUMP JUMPDEST PUSH1 0x0 DUP3 DUP3 MSTORE PUSH1 0x20 DUP3 ADD SWAP1 POP SWAP3 SWAP2 POP POP JUMP JUMPDEST PUSH1 0x0 PUSH2 0x23BF DUP3 PUSH2 0x1A69 JUMP JUMPDEST PUSH2 0x23C9 DUP2 DUP6 PUSH2 0x23A3 JUMP JUMPDEST SWAP4 POP PUSH2 0x23D9 DUP2 DUP6 PUSH1 0x20 DUP7 ADD PUSH2 0x1A85 JUMP JUMPDEST PUSH2 0x23E2 DUP2 PUSH2 0x1AAF JUMP JUMPDEST DUP5 ADD SWAP2 POP POP SWAP3 SWAP2 POP POP JUMP JUMPDEST PUSH1 0x0 PUSH1 0xE0 DUP4 ADD PUSH1 0x0 DUP4 ADD MLOAD DUP5 DUP3 SUB PUSH1 0x0 DUP7 ADD MSTORE PUSH2 0x240A DUP3 DUP3 PUSH2 0x23B4 JUMP JUMPDEST SWAP2 POP POP PUSH1 0x20 DUP4 ADD MLOAD DUP5 DUP3 SUB PUSH1 0x20 DUP7 ADD MSTORE PUSH2 0x2424 DUP3 DUP3 PUSH2 0x23B4 JUMP JUMPDEST SWAP2 POP POP PUSH1 0x40 DUP4 ADD MLOAD DUP5 DUP3 SUB PUSH1 0x40 DUP7 ADD MSTORE PUSH2 0x243E DUP3 DUP3 PUSH2 0x23B4 JUMP JUMPDEST SWAP2 POP POP PUSH1 0x60 DUP4 ADD MLOAD DUP5 DUP3 SUB PUSH1 0x60 DUP7 ADD MSTORE PUSH2 0x2458 DUP3 DUP3 PUSH2 0x23B4 JUMP JUMPDEST SWAP2 POP POP PUSH1 0x80 DUP4 ADD MLOAD DUP5 DUP3 SUB PUSH1 0x80 DUP7 ADD MSTORE PUSH2 0x2472 DUP3 DUP3 PUSH2 0x23B4 JUMP JUMPDEST SWAP2 POP POP PUSH1 0xA0 DUP4 ADD MLOAD DUP5 DUP3 SUB PUSH1 0xA0 DUP7 ADD MSTORE PUSH2 0x248C DUP3 DUP3 PUSH2 0x23B4 JUMP JUMPDEST SWAP2 POP POP PUSH1 0xC0 DUP4 ADD MLOAD DUP5 DUP3 SUB PUSH1 0xC0 DUP7 ADD MSTORE PUSH2 0x24A6 DUP3 DUP3 PUSH2 0x23B4 JUMP JUMPDEST SWAP2 POP POP DUP1 SWAP2 POP POP SWAP3 SWAP2 POP POP JUMP JUMPDEST PUSH1 0x0 DUP2 MLOAD SWAP1 POP SWAP2 SWAP1 POP JUMP JUMPDEST PUSH1 0x0 DUP3 DUP3 MSTORE PUSH1 0x20 DUP3 ADD SWAP1 POP SWAP3 SWAP2 POP POP JUMP JUMPDEST PUSH1 0x0 DUP2 SWAP1 POP PUSH1 0x20 DUP3 ADD SWAP1 POP SWAP2 SWAP1 POP JUMP JUMPDEST PUSH1 0x0 PUSH2 0x24EB DUP4 DUP4 PUSH2 0x23B4 JUMP JUMPDEST SWAP1 POP SWAP3 SWAP2 POP POP JUMP JUMPDEST PUSH1 0x0 PUSH1 0x20 DUP3 ADD SWAP1 POP SWAP2 SWAP1 POP JUMP JUMPDEST PUSH1 0x0 PUSH2 0x250B DUP3 PUSH2 0x24B3 JUMP JUMPDEST PUSH2 0x2515 DUP2 DUP6 PUSH2 0x24BE JUMP JUMPDEST SWAP4 POP DUP4 PUSH1 0x20 DUP3 MUL DUP6 ADD PUSH2 0x2527 DUP6 PUSH2 0x24CF JUMP JUMPDEST DUP1 PUSH1 0x0 JUMPDEST DUP6 DUP2 LT ISZERO PUSH2 0x2563 JUMPI DUP5 DUP5 SUB DUP10 MSTORE DUP2 MLOAD PUSH2 0x2544 DUP6 DUP3 PUSH2 0x24DF JUMP JUMPDEST SWAP5 POP PUSH2 0x254F DUP4 PUSH2 0x24F3 JUMP JUMPDEST SWAP3 POP PUSH1 0x20 DUP11 ADD SWAP10 POP POP PUSH1 0x1 DUP2 ADD SWAP1 POP PUSH2 0x252B JUMP JUMPDEST POP DUP3 SWAP8 POP DUP8 SWAP6 POP POP POP POP POP POP SWAP3 SWAP2 POP POP JUMP JUMPDEST PUSH1 0x0 PUSH1 0xC0 DUP4 ADD PUSH1 0x0 DUP4 ADD MLOAD DUP5 DUP3 SUB PUSH1 0x0 DUP7 ADD MSTORE PUSH2 0x2592 DUP3 DUP3 PUSH2 0x23B4 JUMP JUMPDEST SWAP2 POP POP PUSH1 0x20 DUP4 ADD MLOAD DUP5 DUP3 SUB PUSH1 0x20 DUP7 ADD MSTORE PUSH2 0x25AC DUP3 DUP3 PUSH2 0x23B4 JUMP JUMPDEST SWAP2 POP POP PUSH1 0x40 DUP4 ADD MLOAD DUP5 DUP3 SUB PUSH1 0x40 DUP7 ADD MSTORE PUSH2 0x25C6 DUP3 DUP3 PUSH2 0x23B4 JUMP JUMPDEST SWAP2 POP POP PUSH1 0x60 DUP4 ADD MLOAD DUP5 DUP3 SUB PUSH1 0x60 DUP7 ADD MSTORE PUSH2 0x25E0 DUP3 DUP3 PUSH2 0x23B4 JUMP JUMPDEST SWAP2 POP POP PUSH1 0x80 DUP4 ADD MLOAD DUP5 DUP3 SUB PUSH1 0x80 DUP7 ADD MSTORE PUSH2 0x25FA DUP3 DUP3 PUSH2 0x2500 JUMP JUMPDEST SWAP2 POP POP PUSH1 0xA0 DUP4 ADD MLOAD DUP5 DUP3 SUB PUSH1 0xA0 DUP7 ADD MSTORE PUSH2 0x2614 DUP3 DUP3 PUSH2 0x23B4 JUMP JUMPDEST SWAP2 POP POP DUP1 SWAP2 POP POP SWAP3 SWAP2 POP POP JUMP JUMPDEST PUSH1 0x0 PUSH1 0xA0 DUP4 ADD PUSH1 0x0 DUP4 ADD MLOAD DUP5 DUP3 SUB PUSH1 0x0 DUP7 ADD MSTORE PUSH2 0x263E DUP3 DUP3 PUSH2 0x23B4 JUMP JUMPDEST SWAP2 POP POP PUSH1 0x20 DUP4 ADD MLOAD DUP5 DUP3 SUB PUSH1 0x20 DUP7 ADD MSTORE PUSH2 0x2658 DUP3 DUP3 PUSH2 0x23B4 JUMP JUMPDEST SWAP2 POP POP PUSH1 0x40 DUP4 ADD MLOAD DUP5 DUP3 SUB PUSH1 0x40 DUP7 ADD MSTORE PUSH2 0x2672 DUP3 DUP3 PUSH2 0x23B4 JUMP JUMPDEST SWAP2 POP POP PUSH1 0x60 DUP4 ADD MLOAD DUP5 DUP3 SUB PUSH1 0x60 DUP7 ADD MSTORE PUSH2 0x268C DUP3 DUP3 PUSH2 0x23B4 JUMP JUMPDEST SWAP2 POP POP PUSH1 0x80 DUP4 ADD MLOAD DUP5 DUP3 SUB PUSH1 0x80 DUP7 ADD MSTORE PUSH2 0x26A6 DUP3 DUP3 PUSH2 0x23B4 JUMP JUMPDEST SWAP2 POP POP DUP1 SWAP2 POP POP SWAP3 SWAP2 POP POP JUMP JUMPDEST PUSH1 0x0 PUSH2 0x100 DUP3 ADD SWAP1 POP DUP2 DUP2 SUB PUSH1 0x0 DUP4 ADD MSTORE PUSH2 0x26CE DUP2 DUP8 PUSH2 0x23ED JUMP JUMPDEST SWAP1 POP DUP2 DUP2 SUB PUSH1 0x20 DUP4 ADD MSTORE PUSH2 0x26E2 DUP2 DUP7 PUSH2 0x2575 JUMP JUMPDEST SWAP1 POP DUP2 DUP2 SUB PUSH1 0x40 DUP4 ADD MSTORE PUSH2 0x26F6 DUP2 DUP6 PUSH2 0x2621 JUMP JUMPDEST SWAP1 POP PUSH2 0x2705 PUSH1 0x60 DUP4 ADD DUP5 PUSH2 0x1CB4 JUMP JUMPDEST SWAP6 SWAP5 POP POP POP POP POP JUMP JUMPDEST PUSH1 0x0 DUP1 PUSH1 0x0 DUP1 PUSH1 0x0 DUP1 PUSH1 0xC0 DUP8 DUP10 SUB SLT ISZERO PUSH2 0x272B JUMPI PUSH2 0x272A PUSH2 0x19D4 JUMP JUMPDEST JUMPDEST PUSH1 0x0 DUP8 ADD CALLDATALOAD PUSH8 0xFFFFFFFFFFFFFFFF DUP2 GT ISZERO PUSH2 0x2749 JUMPI PUSH2 0x2748 PUSH2 0x19D9 JUMP JUMPDEST JUMPDEST PUSH2 0x2755 DUP10 DUP3 DUP11 ADD PUSH2 0x1C22 JUMP JUMPDEST SWAP7 POP POP PUSH1 0x20 PUSH2 0x2766 DUP10 DUP3 DUP11 ADD PUSH2 0x2216 JUMP JUMPDEST SWAP6 POP POP PUSH1 0x40 PUSH2 0x2777 DUP10 DUP3 DUP11 ADD PUSH2 0x2216 JUMP JUMPDEST SWAP5 POP POP PUSH1 0x60 PUSH2 0x2788 DUP10 DUP3 DUP11 ADD PUSH2 0x2216 JUMP JUMPDEST SWAP4 POP POP PUSH1 0x80 PUSH2 0x2799 DUP10 DUP3 DUP11 ADD PUSH2 0x2216 JUMP JUMPDEST SWAP3 POP POP PUSH1 0xA0 PUSH2 0x27AA DUP10 DUP3 DUP11 ADD PUSH2 0x2216 JUMP JUMPDEST SWAP2 POP POP SWAP3 SWAP6 POP SWAP3 SWAP6 POP SWAP3 SWAP6 JUMP JUMPDEST PUSH32 0x4E487B7100000000000000000000000000000000000000000000000000000000 PUSH1 0x0 MSTORE PUSH1 0x22 PUSH1 0x4 MSTORE PUSH1 0x24 PUSH1 0x0 REVERT JUMPDEST PUSH1 0x0 PUSH1 0x2 DUP3 DIV SWAP1 POP PUSH1 0x1 DUP3 AND DUP1 PUSH2 0x27FE JUMPI PUSH1 0x7F DUP3 AND SWAP2 POP JUMPDEST PUSH1 0x20 DUP3 LT DUP2 SUB PUSH2 0x2811 JUMPI PUSH2 0x2810 PUSH2 0x27B7 JUMP JUMPDEST JUMPDEST POP SWAP2 SWAP1 POP JUMP JUMPDEST PUSH1 0x0 DUP2 SWAP1 POP SWAP3 SWAP2 POP POP JUMP JUMPDEST PUSH1 0x0 PUSH2 0x282D DUP3 PUSH2 0x1A69 JUMP JUMPDEST PUSH2 0x2837 DUP2 DUP6 PUSH2 0x2817 JUMP JUMPDEST SWAP4 POP PUSH2 0x2847 DUP2 DUP6 PUSH1 0x20 DUP7 ADD PUSH2 0x1A85 JUMP JUMPDEST DUP1 DUP5 ADD SWAP2 POP POP SWAP3 SWAP2 POP POP JUMP JUMPDEST PUSH1 0x0 PUSH2 0x285F DUP3 DUP5 PUSH2 0x2822 JUMP JUMPDEST SWAP2 POP DUP2 SWAP1 POP SWAP3 SWAP2 POP POP JUMP JUMPDEST PUSH32 0x5573657220646F6573206E6F742065786973742E000000000000000000000000 PUSH1 0x0 DUP3 ADD MSTORE POP JUMP JUMPDEST PUSH1 0x0 PUSH2 0x28A0 PUSH1 0x14 DUP4 PUSH2 0x1A74 JUMP JUMPDEST SWAP2 POP PUSH2 0x28AB DUP3 PUSH2 0x286A JUMP JUMPDEST PUSH1 0x20 DUP3 ADD SWAP1 POP SWAP2 SWAP1 POP JUMP JUMPDEST PUSH1 0x0 PUSH1 0x20 DUP3 ADD SWAP1 POP DUP2 DUP2 SUB PUSH1 0x0 DUP4 ADD MSTORE PUSH2 0x28CF DUP2 PUSH2 0x2893 JUMP JUMPDEST SWAP1 POP SWAP2 SWAP1 POP JUMP JUMPDEST PUSH1 0x0 DUP2 SWAP1 POP DUP2 PUSH1 0x0 MSTORE PUSH1 0x20 PUSH1 0x0 KECCAK256 SWAP1 POP SWAP2 SWAP1 POP JUMP JUMPDEST PUSH1 0x0 PUSH1 0x20 PUSH1 0x1F DUP4 ADD DIV SWAP1 POP SWAP2 SWAP1 POP JUMP JUMPDEST PUSH1 0x0 DUP3 DUP3 SHL SWAP1 POP SWAP3 SWAP2 POP POP JUMP JUMPDEST PUSH1 0x0 PUSH1 0x8 DUP4 MUL PUSH2 0x2938 PUSH32 0xFFFFFFFFFFFFFFFFFFFFFFFFFFFFFFFFFFFFFFFFFFFFFFFFFFFFFFFFFFFFFFFF DUP3 PUSH2 0x28FB JUMP JUMPDEST PUSH2 0x2942 DUP7 DUP4 PUSH2 0x28FB JUMP JUMPDEST SWAP6 POP DUP1 NOT DUP5 AND SWAP4 POP DUP1 DUP7 AND DUP5 OR SWAP3 POP POP POP SWAP4 SWAP3 POP POP POP JUMP JUMPDEST PUSH1 0x0 DUP2 SWAP1 POP SWAP2 SWAP1 POP JUMP JUMPDEST PUSH1 0x0 DUP2 SWAP1 POP SWAP2 SWAP1 POP JUMP JUMPDEST PUSH1 0x0 PUSH2 0x2989 PUSH2 0x2984 PUSH2 0x297F DUP5 PUSH2 0x295A JUMP JUMPDEST PUSH2 0x2964 JUMP JUMPDEST PUSH2 0x295A JUMP JUMPDEST SWAP1 POP SWAP2 SWAP1 POP JUMP JUMPDEST PUSH1 0x0 DUP2 SWAP1 POP SWAP2 SWAP1 POP JUMP JUMPDEST PUSH2 0x29A3 DUP4 PUSH2 0x296E JUMP JUMPDEST PUSH2 0x29B7 PUSH2 0x29AF DUP3 PUSH2 0x2990 JUMP JUMPDEST DUP5 DUP5 SLOAD PUSH2 0x2908 JUMP JUMPDEST DUP3 SSTORE POP POP POP POP JUMP JUMPDEST PUSH1 0x0 SWAP1 JUMP JUMPDEST PUSH2 0x29CC PUSH2 0x29BF JUMP JUMPDEST PUSH2 0x29D7 DUP2 DUP5 DUP5 PUSH2 0x299A JUMP JUMPDEST POP POP POP JUMP JUMPDEST JUMPDEST DUP2 DUP2 LT ISZERO PUSH2 0x29FB JUMPI PUSH2 0x29F0 PUSH1 0x0 DUP3 PUSH2 0x29C4 JUMP JUMPDEST PUSH1 0x1 DUP2 ADD SWAP1 POP PUSH2 0x29DD JUMP JUMPDEST POP POP JUMP JUMPDEST PUSH1 0x1F DUP3 GT ISZERO PUSH2 0x2A40 JUMPI PUSH2 0x2A11 DUP2 PUSH2 0x28D6 JUMP JUMPDEST PUSH2 0x2A1A DUP5 PUSH2 0x28EB JUMP JUMPDEST DUP2 ADD PUSH1 0x20 DUP6 LT ISZERO PUSH2 0x2A29 JUMPI DUP2 SWAP1 POP JUMPDEST PUSH2 0x2A3D PUSH2 0x2A35 DUP6 PUSH2 0x28EB JUMP JUMPDEST DUP4 ADD DUP3 PUSH2 0x29DC JUMP JUMPDEST POP POP JUMPDEST POP POP POP JUMP JUMPDEST PUSH1 0x0 DUP3 DUP3 SHR SWAP1 POP SWAP3 SWAP2 POP POP JUMP JUMPDEST PUSH1 0x0 PUSH2 0x2A63 PUSH1 0x0 NOT DUP5 PUSH1 0x8 MUL PUSH2 0x2A45 JUMP JUMPDEST NOT DUP1 DUP4 AND SWAP2 POP POP SWAP3 SWAP2 POP POP JUMP JUMPDEST PUSH1 0x0 PUSH2 0x2A7C DUP4 DUP4 PUSH2 0x2A52 JUMP JUMPDEST SWAP2 POP DUP3 PUSH1 0x2 MUL DUP3 OR SWAP1 POP SWAP3 SWAP2 POP POP JUMP JUMPDEST PUSH2 0x2A95 DUP3 PUSH2 0x1A69 JUMP JUMPDEST PUSH8 0xFFFFFFFFFFFFFFFF DUP2 GT ISZERO PUSH2 0x2AAE JUMPI PUSH2 0x2AAD PUSH2 0x1B25 JUMP JUMPDEST JUMPDEST PUSH2 0x2AB8 DUP3 SLOAD PUSH2 0x27E6 JUMP JUMPDEST PUSH2 0x2AC3 DUP3 DUP3 DUP6 PUSH2 0x29FF JUMP JUMPDEST PUSH1 0x0 PUSH1 0x20 SWAP1 POP PUSH1 0x1F DUP4 GT PUSH1 0x1 DUP2 EQ PUSH2 0x2AF6 JUMPI PUSH1 0x0 DUP5 ISZERO PUSH2 0x2AE4 JUMPI DUP3 DUP8 ADD MLOAD SWAP1 POP JUMPDEST PUSH2 0x2AEE DUP6 DUP3 PUSH2 0x2A70 JUMP JUMPDEST DUP7 SSTORE POP PUSH2 0x2B56 JUMP JUMPDEST PUSH1 0x1F NOT DUP5 AND PUSH2 0x2B04 DUP7 PUSH2 0x28D6 JUMP JUMPDEST PUSH1 0x0 JUMPDEST DUP3 DUP2 LT ISZERO PUSH2 0x2B2C JUMPI DUP5 DUP10 ADD MLOAD DUP3 SSTORE PUSH1 0x1 DUP3 ADD SWAP2 POP PUSH1 0x20 DUP6 ADD SWAP5 POP PUSH1 0x20 DUP2 ADD SWAP1 POP PUSH2 0x2B07 JUMP JUMPDEST DUP7 DUP4 LT ISZERO PUSH2 0x2B49 JUMPI DUP5 DUP10 ADD MLOAD PUSH2 0x2B45 PUSH1 0x1F DUP10 AND DUP3 PUSH2 0x2A52 JUMP JUMPDEST DUP4 SSTORE POP JUMPDEST PUSH1 0x1 PUSH1 0x2 DUP9 MUL ADD DUP9 SSTORE POP POP POP JUMPDEST POP POP POP POP POP POP JUMP JUMPDEST PUSH32 0x5573657220646F6573206E6F742065786974732E000000000000000000000000 PUSH1 0x0 DUP3 ADD MSTORE POP JUMP JUMPDEST PUSH1 0x0 PUSH2 0x2B94 PUSH1 0x14 DUP4 PUSH2 0x1A74 JUMP JUMPDEST SWAP2 POP PUSH2 0x2B9F DUP3 PUSH2 0x2B5E JUMP JUMPDEST PUSH1 0x20 DUP3 ADD SWAP1 POP SWAP2 SWAP1 POP JUMP JUMPDEST PUSH1 0x0 PUSH1 0x20 DUP3 ADD SWAP1 POP DUP2 DUP2 SUB PUSH1 0x0 DUP4 ADD MSTORE PUSH2 0x2BC3 DUP2 PUSH2 0x2B87 JUMP JUMPDEST SWAP1 POP SWAP2 SWAP1 POP JUMP JUMPDEST PUSH32 0x5573657220616C7265616479206578697374732E000000000000000000000000 PUSH1 0x0 DUP3 ADD MSTORE POP JUMP JUMPDEST PUSH1 0x0 PUSH2 0x2C00 PUSH1 0x14 DUP4 PUSH2 0x1A74 JUMP JUMPDEST SWAP2 POP PUSH2 0x2C0B DUP3 PUSH2 0x2BCA JUMP JUMPDEST PUSH1 0x20 DUP3 ADD SWAP1 POP SWAP2 SWAP1 POP JUMP JUMPDEST PUSH1 0x0 PUSH1 0x20 DUP3 ADD SWAP1 POP DUP2 DUP2 SUB PUSH1 0x0 DUP4 ADD MSTORE PUSH2 0x2C2F DUP2 PUSH2 0x2BF3 JUMP JUMPDEST SWAP1 POP SWAP2 SWAP1 POP JUMP INVALID LOG2 PUSH5 0x6970667358 0x22 SLT KECCAK256 LOG0 DUP2 0xBD DUP6 DELEGATECALL PUSH15 0x2C0B19915521B7640E2EAEB095A747 DUP8 ISZERO BASEFEE 0xBF 0xBD CODESIZE PUSH15 0xE94D73BD64736F6C63430008180033 "
        },
        "methodIdentifiers": {
          "createUser(string,(string,string,string,string,string,string,string),(string,string,string,string,string[],string),(string,string,string,string,string),(bool,bool,bool,bool,bool))": "eb0ee8da",
          "editUser(string,(string,string,string,string,string,string,string),(string,string,string,string,string[],string),(string,string,string,string,string),(bool,bool,bool,bool,bool))": "3f997682",
          "getUserByAddress(address)": "69c212f6",
          "getUserByUserName(string)": "be6c8987",
          "getUserNameByAddress(address)": "10fe472b",
          "getVisibility(string)": "320ba8f7",
          "setVisibility(string,bool,bool,bool,bool,bool)": "d1577cac"
        }
      }
    }
  }
}