{
  "_format": "hh-sol-artifact-1",
  "contractName": "Identity",
  "sourceName": "contracts/Identity.sol",
  "abi": [
    {
      "inputs": [
        {
          "internalType": "string",
          "name": "userName",
          "type": "string"
        },
        {
          "components": [
            {
              "internalType": "string",
              "name": "firstName",
              "type": "string"
            },
            {
              "internalType": "string",
              "name": "lastName",
              "type": "string"
            },
            {
              "internalType": "string",
              "name": "userName",
              "type": "string"
            },
            {
              "internalType": "string",
              "name": "email",
              "type": "string"
            },
            {
              "internalType": "string",
              "name": "homeAddress",
              "type": "string"
            },
            {
              "internalType": "string",
              "name": "phoneNumber",
              "type": "string"
            },
            {
              "internalType": "string",
              "name": "dateOfBirth",
              "type": "string"
            }
          ],
          "internalType": "struct Identity.BasicInfo",
          "name": "basicInfo",
          "type": "tuple"
        },
        {
          "components": [
            {
              "internalType": "string",
              "name": "education",
              "type": "string"
            },
            {
              "internalType": "string",
              "name": "workHistory",
              "type": "string"
            },
            {
              "internalType": "string",
              "name": "jobTitle",
              "type": "string"
            },
            {
              "internalType": "string",
              "name": "info",
              "type": "string"
            },
            {
              "internalType": "string[]",
              "name": "skills",
              "type": "string[]"
            },
            {
              "internalType": "string",
              "name": "imageUrl",
              "type": "string"
            }
          ],
          "internalType": "struct Identity.ProfessionalInfo",
          "name": "professionalInfo",
          "type": "tuple"
        },
        {
          "components": [
            {
              "internalType": "string",
              "name": "x",
              "type": "string"
            },
            {
              "internalType": "string",
              "name": "tiktok",
              "type": "string"
            },
            {
              "internalType": "string",
              "name": "instargram",
              "type": "string"
            },
            {
              "internalType": "string",
              "name": "youtube",
              "type": "string"
            },
            {
              "internalType": "string",
              "name": "linkedin",
              "type": "string"
            }
          ],
          "internalType": "struct Identity.SocialLinks",
          "name": "socialLinks",
          "type": "tuple"
        },
        {
          "components": [
            {
              "internalType": "bool",
              "name": "education",
              "type": "bool"
            },
            {
              "internalType": "bool",
              "name": "workHistory",
              "type": "bool"
            },
            {
              "internalType": "bool",
              "name": "phoneNumber",
              "type": "bool"
            },
            {
              "internalType": "bool",
              "name": "homeAddress",
              "type": "bool"
            },
            {
              "internalType": "bool",
              "name": "dateOfBirth",
              "type": "bool"
            }
          ],
          "internalType": "struct Identity.Visibility",
          "name": "visibility",
          "type": "tuple"
        }
      ],
      "name": "createUser",
      "outputs": [],
      "stateMutability": "nonpayable",
      "type": "function"
    },
    {
      "inputs": [
        {
          "internalType": "string",
          "name": "userName",
          "type": "string"
        },
        {
          "components": [
            {
              "internalType": "string",
              "name": "firstName",
              "type": "string"
            },
            {
              "internalType": "string",
              "name": "lastName",
              "type": "string"
            },
            {
              "internalType": "string",
              "name": "userName",
              "type": "string"
            },
            {
              "internalType": "string",
              "name": "email",
              "type": "string"
            },
            {
              "internalType": "string",
              "name": "homeAddress",
              "type": "string"
            },
            {
              "internalType": "string",
              "name": "phoneNumber",
              "type": "string"
            },
            {
              "internalType": "string",
              "name": "dateOfBirth",
              "type": "string"
            }
          ],
          "internalType": "struct Identity.BasicInfo",
          "name": "basicInfo",
          "type": "tuple"
        },
        {
          "components": [
            {
              "internalType": "string",
              "name": "education",
              "type": "string"
            },
            {
              "internalType": "string",
              "name": "workHistory",
              "type": "string"
            },
            {
              "internalType": "string",
              "name": "jobTitle",
              "type": "string"
            },
            {
              "internalType": "string",
              "name": "info",
              "type": "string"
            },
            {
              "internalType": "string[]",
              "name": "skills",
              "type": "string[]"
            },
            {
              "internalType": "string",
              "name": "imageUrl",
              "type": "string"
            }
          ],
          "internalType": "struct Identity.ProfessionalInfo",
          "name": "professionalInfo",
          "type": "tuple"
        },
        {
          "components": [
            {
              "internalType": "string",
              "name": "x",
              "type": "string"
            },
            {
              "internalType": "string",
              "name": "tiktok",
              "type": "string"
            },
            {
              "internalType": "string",
              "name": "instargram",
              "type": "string"
            },
            {
              "internalType": "string",
              "name": "youtube",
              "type": "string"
            },
            {
              "internalType": "string",
              "name": "linkedin",
              "type": "string"
            }
          ],
          "internalType": "struct Identity.SocialLinks",
          "name": "socialLinks",
          "type": "tuple"
        },
        {
          "components": [
            {
              "internalType": "bool",
              "name": "education",
              "type": "bool"
            },
            {
              "internalType": "bool",
              "name": "workHistory",
              "type": "bool"
            },
            {
              "internalType": "bool",
              "name": "phoneNumber",
              "type": "bool"
            },
            {
              "internalType": "bool",
              "name": "homeAddress",
              "type": "bool"
            },
            {
              "internalType": "bool",
              "name": "dateOfBirth",
              "type": "bool"
            }
          ],
          "internalType": "struct Identity.Visibility",
          "name": "visibility",
          "type": "tuple"
        }
      ],
      "name": "editUser",
      "outputs": [],
      "stateMutability": "nonpayable",
      "type": "function"
    },
    {
      "inputs": [
        {
          "internalType": "address",
          "name": "userAddress",
          "type": "address"
        }
      ],
      "name": "getUserByAddress",
      "outputs": [
        {
          "components": [
            {
              "internalType": "string",
              "name": "firstName",
              "type": "string"
            },
            {
              "internalType": "string",
              "name": "lastName",
              "type": "string"
            },
            {
              "internalType": "string",
              "name": "userName",
              "type": "string"
            },
            {
              "internalType": "string",
              "name": "email",
              "type": "string"
            },
            {
              "internalType": "string",
              "name": "homeAddress",
              "type": "string"
            },
            {
              "internalType": "string",
              "name": "phoneNumber",
              "type": "string"
            },
            {
              "internalType": "string",
              "name": "dateOfBirth",
              "type": "string"
            }
          ],
          "internalType": "struct Identity.BasicInfo",
          "name": "basicInfo",
          "type": "tuple"
        },
        {
          "components": [
            {
              "internalType": "string",
              "name": "education",
              "type": "string"
            },
            {
              "internalType": "string",
              "name": "workHistory",
              "type": "string"
            },
            {
              "internalType": "string",
              "name": "jobTitle",
              "type": "string"
            },
            {
              "internalType": "string",
              "name": "info",
              "type": "string"
            },
            {
              "internalType": "string[]",
              "name": "skills",
              "type": "string[]"
            },
            {
              "internalType": "string",
              "name": "imageUrl",
              "type": "string"
            }
          ],
          "internalType": "struct Identity.ProfessionalInfo",
          "name": "professionalInfo",
          "type": "tuple"
        },
        {
          "components": [
            {
              "internalType": "string",
              "name": "x",
              "type": "string"
            },
            {
              "internalType": "string",
              "name": "tiktok",
              "type": "string"
            },
            {
              "internalType": "string",
              "name": "instargram",
              "type": "string"
            },
            {
              "internalType": "string",
              "name": "youtube",
              "type": "string"
            },
            {
              "internalType": "string",
              "name": "linkedin",
              "type": "string"
            }
          ],
          "internalType": "struct Identity.SocialLinks",
          "name": "socialLinks",
          "type": "tuple"
        },
        {
          "components": [
            {
              "internalType": "bool",
              "name": "education",
              "type": "bool"
            },
            {
              "internalType": "bool",
              "name": "workHistory",
              "type": "bool"
            },
            {
              "internalType": "bool",
              "name": "phoneNumber",
              "type": "bool"
            },
            {
              "internalType": "bool",
              "name": "homeAddress",
              "type": "bool"
            },
            {
              "internalType": "bool",
              "name": "dateOfBirth",
              "type": "bool"
            }
          ],
          "internalType": "struct Identity.Visibility",
          "name": "visibility",
          "type": "tuple"
        }
      ],
      "stateMutability": "view",
      "type": "function"
    },
    {
      "inputs": [
        {
          "internalType": "string",
          "name": "userName",
          "type": "string"
        }
      ],
      "name": "getUserByUserName",
      "outputs": [
        {
          "components": [
            {
              "internalType": "string",
              "name": "firstName",
              "type": "string"
            },
            {
              "internalType": "string",
              "name": "lastName",
              "type": "string"
            },
            {
              "internalType": "string",
              "name": "userName",
              "type": "string"
            },
            {
              "internalType": "string",
              "name": "email",
              "type": "string"
            },
            {
              "internalType": "string",
              "name": "homeAddress",
              "type": "string"
            },
            {
              "internalType": "string",
              "name": "phoneNumber",
              "type": "string"
            },
            {
              "internalType": "string",
              "name": "dateOfBirth",
              "type": "string"
            }
          ],
          "internalType": "struct Identity.BasicInfo",
          "name": "basicInfo",
          "type": "tuple"
        },
        {
          "components": [
            {
              "internalType": "string",
              "name": "education",
              "type": "string"
            },
            {
              "internalType": "string",
              "name": "workHistory",
              "type": "string"
            },
            {
              "internalType": "string",
              "name": "jobTitle",
              "type": "string"
            },
            {
              "internalType": "string",
              "name": "info",
              "type": "string"
            },
            {
              "internalType": "string[]",
              "name": "skills",
              "type": "string[]"
            },
            {
              "internalType": "string",
              "name": "imageUrl",
              "type": "string"
            }
          ],
          "internalType": "struct Identity.ProfessionalInfo",
          "name": "professionalInfo",
          "type": "tuple"
        },
        {
          "components": [
            {
              "internalType": "string",
              "name": "x",
              "type": "string"
            },
            {
              "internalType": "string",
              "name": "tiktok",
              "type": "string"
            },
            {
              "internalType": "string",
              "name": "instargram",
              "type": "string"
            },
            {
              "internalType": "string",
              "name": "youtube",
              "type": "string"
            },
            {
              "internalType": "string",
              "name": "linkedin",
              "type": "string"
            }
          ],
          "internalType": "struct Identity.SocialLinks",
          "name": "socialLinks",
          "type": "tuple"
        },
        {
          "components": [
            {
              "internalType": "bool",
              "name": "education",
              "type": "bool"
            },
            {
              "internalType": "bool",
              "name": "workHistory",
              "type": "bool"
            },
            {
              "internalType": "bool",
              "name": "phoneNumber",
              "type": "bool"
            },
            {
              "internalType": "bool",
              "name": "homeAddress",
              "type": "bool"
            },
            {
              "internalType": "bool",
              "name": "dateOfBirth",
              "type": "bool"
            }
          ],
          "internalType": "struct Identity.Visibility",
          "name": "visibility",
          "type": "tuple"
        }
      ],
      "stateMutability": "view",
      "type": "function"
    },
    {
      "inputs": [
        {
          "internalType": "address",
          "name": "userAddress",
          "type": "address"
        }
      ],
      "name": "getUserNameByAddress",
      "outputs": [
        {
          "internalType": "string",
          "name": "",
          "type": "string"
        }
      ],
      "stateMutability": "view",
      "type": "function"
    },
    {
      "inputs": [
        {
          "internalType": "string",
          "name": "userName",
          "type": "string"
        }
      ],
      "name": "getVisibility",
      "outputs": [
        {
          "components": [
            {
              "internalType": "bool",
              "name": "education",
              "type": "bool"
            },
            {
              "internalType": "bool",
              "name": "workHistory",
              "type": "bool"
            },
            {
              "internalType": "bool",
              "name": "phoneNumber",
              "type": "bool"
            },
            {
              "internalType": "bool",
              "name": "homeAddress",
              "type": "bool"
            },
            {
              "internalType": "bool",
              "name": "dateOfBirth",
              "type": "bool"
            }
          ],
          "internalType": "struct Identity.Visibility",
          "name": "",
          "type": "tuple"
        }
      ],
      "stateMutability": "view",
      "type": "function"
    },
    {
      "inputs": [
        {
          "internalType": "string",
          "name": "userName",
          "type": "string"
        },
        {
          "internalType": "bool",
          "name": "education",
          "type": "bool"
        },
        {
          "internalType": "bool",
          "name": "workHistory",
          "type": "bool"
        },
        {
          "internalType": "bool",
          "name": "phoneNumber",
          "type": "bool"
        },
        {
          "internalType": "bool",
          "name": "homeAddress",
          "type": "bool"
        },
        {
          "internalType": "bool",
          "name": "dateOfBirth",
          "type": "bool"
        }
      ],
      "name": "setVisibility",
      "outputs": [],
      "stateMutability": "nonpayable",
      "type": "function"
    }
  ],
  "bytecode": "0x608060405234801561001057600080fd5b50612c6c806100206000396000f3fe608060405234801561001057600080fd5b506004361061007d5760003560e01c806369c212f61161005b57806369c212f6146100fe578063be6c898714610131578063d1577cac14610164578063eb0ee8da146101805761007d565b806310fe472b14610082578063320ba8f7146100b25780633f997682146100e2575b600080fd5b61009c60048036038101906100979190611a3c565b61019c565b6040516100a99190611af9565b60405180910390f35b6100cc60048036038101906100c79190611c50565b61026d565b6040516100d99190611d1c565b60405180910390f35b6100fc60048036038101906100f791906122b7565b61039d565b005b61011860048036038101906101139190611a3c565b610710565b60405161012894939291906126b3565b60405180910390f35b61014b60048036038101906101469190611c50565b610815565b60405161015b94939291906126b3565b60405180910390f35b61017e6004803603810190610179919061270e565b611410565b005b61019a600480360381019061019591906122b7565b611543565b005b6060600160008373ffffffffffffffffffffffffffffffffffffffff1673ffffffffffffffffffffffffffffffffffffffff16815260200190815260200160002080546101e8906127e6565b80601f0160208091040260200160405190810160405280929190818152602001828054610214906127e6565b80156102615780601f1061023657610100808354040283529160200191610261565b820191906000526020600020905b81548152906001019060200180831161024457829003601f168201915b50505050509050919050565b610275611815565b6000826040516102859190612853565b908152602001604051809103902060120160009054906101000a900460ff166102e3576040517f08c379a00000000000000000000000000000000000000000000000000000000081526004016102da906128b6565b60405180910390fd5b6000826040516102f39190612853565b90815260200160405180910390206014016040518060a00160405290816000820160009054906101000a900460ff161515151581526020016000820160019054906101000a900460ff161515151581526020016000820160029054906101000a900460ff161515151581526020016000820160039054906101000a900460ff161515151581526020016000820160049054906101000a900460ff1615151515815250509050919050565b846002816040516103ae9190612853565b908152602001604051809103902060009054906101000a900460ff161561040a576040517f08c379a000000000000000000000000000000000000000000000000000000000815260040161040190612922565b60405180910390fd5b6000808760405161041b9190612853565b9081526020016040518091039020905085600001518160000190816104409190612af8565b5085602001518160010190816104569190612af8565b50856040015181600201908161046c9190612af8565b5085606001518160030190816104829190612af8565b5085608001518160040190816104989190612af8565b508560c0015181600b0190816104ae9190612af8565b50846000015181600c0190816104c49190612af8565b50846020015181600d0190816104da9190612af8565b508560a001518160050190816104f09190612af8565b50846040015181600e0190816105069190612af8565b50836000015181600601908161051c9190612af8565b5083602001518160070190816105329190612af8565b5083604001518160080190816105489190612af8565b50836060015181600901908161055e9190612af8565b50836080015181600a0190816105749190612af8565b50846060015181600f01908161058a9190612af8565b5084608001518160100190805190602001906105a792919061184e565b508460a001518160110190816105bd9190612af8565b5060018160120160006101000a81548160ff021916908315150217905550828160140160008201518160000160006101000a81548160ff02191690831515021790555060208201518160000160016101000a81548160ff02191690831515021790555060408201518160000160026101000a81548160ff02191690831515021790555060608201518160000160036101000a81548160ff02191690831515021790555060808201518160000160046101000a81548160ff02191690831515021790555090505060016002886040516106959190612853565b908152602001604051809103902060006101000a81548160ff02191690831515021790555086600160003373ffffffffffffffffffffffffffffffffffffffff1673ffffffffffffffffffffffffffffffffffffffff16815260200190815260200160002090816107069190612af8565b5050505050505050565b6107186118a7565b6107206118e4565b61072861191a565b610730611815565b6000600160008773ffffffffffffffffffffffffffffffffffffffff1673ffffffffffffffffffffffffffffffffffffffff168152602001908152602001600020805461077c906127e6565b80601f01602080910402602001604051908101604052809291908181526020018280546107a8906127e6565b80156107f55780601f106107ca576101008083540402835291602001916107f5565b820191906000526020600020905b8154815290600101906020018083116107d857829003601f168201915b5050505050905061080581610815565b9450945094509450509193509193565b61081d6118a7565b6108256118e4565b61082d61191a565b610835611815565b6000856040516108459190612853565b908152602001604051809103902060120160009054906101000a900460ff166108a3576040517f08c379a000000000000000000000000000000000000000000000000000000000815260040161089a90612c16565b60405180910390fd5b600080866040516108b49190612853565b908152602001604051809103902090506040518060e001604052808260000180546108de906127e6565b80601f016020809104026020016040519081016040528092919081815260200182805461090a906127e6565b80156109575780601f1061092c57610100808354040283529160200191610957565b820191906000526020600020905b81548152906001019060200180831161093a57829003601f168201915b50505050508152602001826001018054610970906127e6565b80601f016020809104026020016040519081016040528092919081815260200182805461099c906127e6565b80156109e95780601f106109be576101008083540402835291602001916109e9565b820191906000526020600020905b8154815290600101906020018083116109cc57829003601f168201915b50505050508152602001826002018054610a02906127e6565b80601f0160208091040260200160405190810160405280929190818152602001828054610a2e906127e6565b8015610a7b5780601f10610a5057610100808354040283529160200191610a7b565b820191906000526020600020905b815481529060010190602001808311610a5e57829003601f168201915b50505050508152602001826003018054610a94906127e6565b80601f0160208091040260200160405190810160405280929190818152602001828054610ac0906127e6565b8015610b0d5780601f10610ae257610100808354040283529160200191610b0d565b820191906000526020600020905b815481529060010190602001808311610af057829003601f168201915b50505050508152602001826004018054610b26906127e6565b80601f0160208091040260200160405190810160405280929190818152602001828054610b52906127e6565b8015610b9f5780601f10610b7457610100808354040283529160200191610b9f565b820191906000526020600020905b815481529060010190602001808311610b8257829003601f168201915b5050505050815260200182600b018054610bb8906127e6565b80601f0160208091040260200160405190810160405280929190818152602001828054610be4906127e6565b8015610c315780601f10610c0657610100808354040283529160200191610c31565b820191906000526020600020905b815481529060010190602001808311610c1457829003601f168201915b50505050508152602001826005018054610c4a906127e6565b80601f0160208091040260200160405190810160405280929190818152602001828054610c76906127e6565b8015610cc35780601f10610c9857610100808354040283529160200191610cc3565b820191906000526020600020905b815481529060010190602001808311610ca657829003601f168201915b505050505081525094506040518060c0016040528082600c018054610ce7906127e6565b80601f0160208091040260200160405190810160405280929190818152602001828054610d13906127e6565b8015610d605780601f10610d3557610100808354040283529160200191610d60565b820191906000526020600020905b815481529060010190602001808311610d4357829003601f168201915b5050505050815260200182600d018054610d79906127e6565b80601f0160208091040260200160405190810160405280929190818152602001828054610da5906127e6565b8015610df25780601f10610dc757610100808354040283529160200191610df2565b820191906000526020600020905b815481529060010190602001808311610dd557829003601f168201915b5050505050815260200182600e018054610e0b906127e6565b80601f0160208091040260200160405190810160405280929190818152602001828054610e37906127e6565b8015610e845780601f10610e5957610100808354040283529160200191610e84565b820191906000526020600020905b815481529060010190602001808311610e6757829003601f168201915b5050505050815260200182600f018054610e9d906127e6565b80601f0160208091040260200160405190810160405280929190818152602001828054610ec9906127e6565b8015610f165780601f10610eeb57610100808354040283529160200191610f16565b820191906000526020600020905b815481529060010190602001808311610ef957829003601f168201915b5050505050815260200182601001805480602002602001604051908101604052809291908181526020016000905b82821015610ff0578382906000526020600020018054610f63906127e6565b80601f0160208091040260200160405190810160405280929190818152602001828054610f8f906127e6565b8015610fdc5780601f10610fb157610100808354040283529160200191610fdc565b820191906000526020600020905b815481529060010190602001808311610fbf57829003601f168201915b505050505081526020019060010190610f44565b505050508152602001826011018054611008906127e6565b80601f0160208091040260200160405190810160405280929190818152602001828054611034906127e6565b80156110815780601f1061105657610100808354040283529160200191611081565b820191906000526020600020905b81548152906001019060200180831161106457829003601f168201915b505050505081525093506040518060a001604052808260060180546110a5906127e6565b80601f01602080910402602001604051908101604052809291908181526020018280546110d1906127e6565b801561111e5780601f106110f35761010080835404028352916020019161111e565b820191906000526020600020905b81548152906001019060200180831161110157829003601f168201915b50505050508152602001826007018054611137906127e6565b80601f0160208091040260200160405190810160405280929190818152602001828054611163906127e6565b80156111b05780601f10611185576101008083540402835291602001916111b0565b820191906000526020600020905b81548152906001019060200180831161119357829003601f168201915b505050505081526020018260080180546111c9906127e6565b80601f01602080910402602001604051908101604052809291908181526020018280546111f5906127e6565b80156112425780601f1061121757610100808354040283529160200191611242565b820191906000526020600020905b81548152906001019060200180831161122557829003601f168201915b5050505050815260200182600901805461125b906127e6565b80601f0160208091040260200160405190810160405280929190818152602001828054611287906127e6565b80156112d45780601f106112a9576101008083540402835291602001916112d4565b820191906000526020600020905b8154815290600101906020018083116112b757829003601f168201915b5050505050815260200182600a0180546112ed906127e6565b80601f0160208091040260200160405190810160405280929190818152602001828054611319906127e6565b80156113665780601f1061133b57610100808354040283529160200191611366565b820191906000526020600020905b81548152906001019060200180831161134957829003601f168201915b50505050508152509250806014016040518060a00160405290816000820160009054906101000a900460ff161515151581526020016000820160019054906101000a900460ff161515151581526020016000820160029054906101000a900460ff161515151581526020016000820160039054906101000a900460ff161515151581526020016000820160049054906101000a900460ff1615151515815250509150509193509193565b6000866040516114209190612853565b908152602001604051809103902060120160009054906101000a900460ff1661147e576040517f08c379a0000000000000000000000000000000000000000000000000000000008152600401611475906128b6565b60405180910390fd5b6000808760405161148f9190612853565b90815260200160405180910390209050858160140160000160006101000a81548160ff021916908315150217905550848160140160000160016101000a81548160ff021916908315150217905550838160140160000160026101000a81548160ff021916908315150217905550828160140160000160036101000a81548160ff021916908315150217905550818160140160000160046101000a81548160ff02191690831515021790555050505050505050565b6000856040516115539190612853565b908152602001604051809103902060120160009054906101000a900460ff166115b1576040517f08c379a00000000000000000000000000000000000000000000000000000000081526004016115a8906128b6565b60405180910390fd5b600080866040516115c29190612853565b9081526020016040518091039020905084600001518160000190816115e79190612af8565b5084602001518160010190816115fd9190612af8565b5084604001518160020190816116139190612af8565b5084606001518160030190816116299190612af8565b50846080015181600401908161163f9190612af8565b508460c0015181600b0190816116559190612af8565b50836000015181600c01908161166b9190612af8565b50836020015181600d0190816116819190612af8565b508460a001518160050190816116979190612af8565b50836040015181600e0190816116ad9190612af8565b5082600001518160060190816116c39190612af8565b5082602001518160070190816116d99190612af8565b5082604001518160080190816116ef9190612af8565b5082606001518160090190816117059190612af8565b50826080015181600a01908161171b9190612af8565b50836060015181600f0190816117319190612af8565b50836080015181601001908051906020019061174e92919061184e565b508360a001518160110190816117649190612af8565b50818160140160008201518160000160006101000a81548160ff02191690831515021790555060208201518160000160016101000a81548160ff02191690831515021790555060408201518160000160026101000a81548160ff02191690831515021790555060608201518160000160036101000a81548160ff02191690831515021790555060808201518160000160046101000a81548160ff021916908315150217905550905050505050505050565b6040518060a001604052806000151581526020016000151581526020016000151581526020016000151581526020016000151581525090565b828054828255906000526020600020908101928215611896579160200282015b828111156118955782518290816118859190612af8565b509160200191906001019061186e565b5b5090506118a39190611949565b5090565b6040518060e00160405280606081526020016060815260200160608152602001606081526020016060815260200160608152602001606081525090565b6040518060c001604052806060815260200160608152602001606081526020016060815260200160608152602001606081525090565b6040518060a0016040528060608152602001606081526020016060815260200160608152602001606081525090565b5b808211156119695760008181611960919061196d565b5060010161194a565b5090565b508054611979906127e6565b6000825580601f1061198b57506119aa565b601f0160209004906000526020600020908101906119a991906119ad565b5b50565b5b808211156119c65760008160009055506001016119ae565b5090565b6000604051905090565b600080fd5b600080fd5b600073ffffffffffffffffffffffffffffffffffffffff82169050919050565b6000611a09826119de565b9050919050565b611a19816119fe565b8114611a2457600080fd5b50565b600081359050611a3681611a10565b92915050565b600060208284031215611a5257611a516119d4565b5b6000611a6084828501611a27565b91505092915050565b600081519050919050565b600082825260208201905092915050565b60005b83811015611aa3578082015181840152602081019050611a88565b60008484015250505050565b6000601f19601f8301169050919050565b6000611acb82611a69565b611ad58185611a74565b9350611ae5818560208601611a85565b611aee81611aaf565b840191505092915050565b60006020820190508181036000830152611b138184611ac0565b905092915050565b600080fd5b600080fd5b7f4e487b7100000000000000000000000000000000000000000000000000000000600052604160045260246000fd5b611b5d82611aaf565b810181811067ffffffffffffffff82111715611b7c57611b7b611b25565b5b80604052505050565b6000611b8f6119ca565b9050611b9b8282611b54565b919050565b600067ffffffffffffffff821115611bbb57611bba611b25565b5b611bc482611aaf565b9050602081019050919050565b82818337600083830152505050565b6000611bf3611bee84611ba0565b611b85565b905082815260208101848484011115611c0f57611c0e611b20565b5b611c1a848285611bd1565b509392505050565b600082601f830112611c3757611c36611b1b565b5b8135611c47848260208601611be0565b91505092915050565b600060208284031215611c6657611c656119d4565b5b600082013567ffffffffffffffff811115611c8457611c836119d9565b5b611c9084828501611c22565b91505092915050565b60008115159050919050565b611cae81611c99565b82525050565b60a082016000820151611cca6000850182611ca5565b506020820151611cdd6020850182611ca5565b506040820151611cf06040850182611ca5565b506060820151611d036060850182611ca5565b506080820151611d166080850182611ca5565b50505050565b600060a082019050611d316000830184611cb4565b92915050565b600080fd5b600080fd5b600060e08284031215611d5757611d56611d37565b5b611d6160e0611b85565b9050600082013567ffffffffffffffff811115611d8157611d80611d3c565b5b611d8d84828501611c22565b600083015250602082013567ffffffffffffffff811115611db157611db0611d3c565b5b611dbd84828501611c22565b602083015250604082013567ffffffffffffffff811115611de157611de0611d3c565b5b611ded84828501611c22565b604083015250606082013567ffffffffffffffff811115611e1157611e10611d3c565b5b611e1d84828501611c22565b606083015250608082013567ffffffffffffffff811115611e4157611e40611d3c565b5b611e4d84828501611c22565b60808301525060a082013567ffffffffffffffff811115611e7157611e70611d3c565b5b611e7d84828501611c22565b60a08301525060c082013567ffffffffffffffff811115611ea157611ea0611d3c565b5b611ead84828501611c22565b60c08301525092915050565b600067ffffffffffffffff821115611ed457611ed3611b25565b5b602082029050602081019050919050565b600080fd5b6000611efd611ef884611eb9565b611b85565b90508083825260208201905060208402830185811115611f2057611f1f611ee5565b5b835b81811015611f6757803567ffffffffffffffff811115611f4557611f44611b1b565b5b808601611f528982611c22565b85526020850194505050602081019050611f22565b5050509392505050565b600082601f830112611f8657611f85611b1b565b5b8135611f96848260208601611eea565b91505092915050565b600060c08284031215611fb557611fb4611d37565b5b611fbf60c0611b85565b9050600082013567ffffffffffffffff811115611fdf57611fde611d3c565b5b611feb84828501611c22565b600083015250602082013567ffffffffffffffff81111561200f5761200e611d3c565b5b61201b84828501611c22565b602083015250604082013567ffffffffffffffff81111561203f5761203e611d3c565b5b61204b84828501611c22565b604083015250606082013567ffffffffffffffff81111561206f5761206e611d3c565b5b61207b84828501611c22565b606083015250608082013567ffffffffffffffff81111561209f5761209e611d3c565b5b6120ab84828501611f71565b60808301525060a082013567ffffffffffffffff8111156120cf576120ce611d3c565b5b6120db84828501611c22565b60a08301525092915050565b600060a082840312156120fd576120fc611d37565b5b61210760a0611b85565b9050600082013567ffffffffffffffff81111561212757612126611d3c565b5b61213384828501611c22565b600083015250602082013567ffffffffffffffff81111561215757612156611d3c565b5b61216384828501611c22565b602083015250604082013567ffffffffffffffff81111561218757612186611d3c565b5b61219384828501611c22565b604083015250606082013567ffffffffffffffff8111156121b7576121b6611d3c565b5b6121c384828501611c22565b606083015250608082013567ffffffffffffffff8111156121e7576121e6611d3c565b5b6121f384828501611c22565b60808301525092915050565b61220881611c99565b811461221357600080fd5b50565b600081359050612225816121ff565b92915050565b600060a0828403121561224157612240611d37565b5b61224b60a0611b85565b9050600061225b84828501612216565b600083015250602061226f84828501612216565b602083015250604061228384828501612216565b604083015250606061229784828501612216565b60608301525060806122ab84828501612216565b60808301525092915050565b600080600080600061012086880312156122d4576122d36119d4565b5b600086013567ffffffffffffffff8111156122f2576122f16119d9565b5b6122fe88828901611c22565b955050602086013567ffffffffffffffff81111561231f5761231e6119d9565b5b61232b88828901611d41565b945050604086013567ffffffffffffffff81111561234c5761234b6119d9565b5b61235888828901611f9f565b935050606086013567ffffffffffffffff811115612379576123786119d9565b5b612385888289016120e7565b92505060806123968882890161222b565b9150509295509295909350565b600082825260208201905092915050565b60006123bf82611a69565b6123c981856123a3565b93506123d9818560208601611a85565b6123e281611aaf565b840191505092915050565b600060e083016000830151848203600086015261240a82826123b4565b9150506020830151848203602086015261242482826123b4565b9150506040830151848203604086015261243e82826123b4565b9150506060830151848203606086015261245882826123b4565b9150506080830151848203608086015261247282826123b4565b91505060a083015184820360a086015261248c82826123b4565b91505060c083015184820360c08601526124a682826123b4565b9150508091505092915050565b600081519050919050565b600082825260208201905092915050565b6000819050602082019050919050565b60006124eb83836123b4565b905092915050565b6000602082019050919050565b600061250b826124b3565b61251581856124be565b935083602082028501612527856124cf565b8060005b85811015612563578484038952815161254485826124df565b945061254f836124f3565b925060208a0199505060018101905061252b565b50829750879550505050505092915050565b600060c083016000830151848203600086015261259282826123b4565b915050602083015184820360208601526125ac82826123b4565b915050604083015184820360408601526125c682826123b4565b915050606083015184820360608601526125e082826123b4565b915050608083015184820360808601526125fa8282612500565b91505060a083015184820360a086015261261482826123b4565b9150508091505092915050565b600060a083016000830151848203600086015261263e82826123b4565b9150506020830151848203602086015261265882826123b4565b9150506040830151848203604086015261267282826123b4565b9150506060830151848203606086015261268c82826123b4565b915050608083015184820360808601526126a682826123b4565b9150508091505092915050565b60006101008201905081810360008301526126ce81876123ed565b905081810360208301526126e28186612575565b905081810360408301526126f68185612621565b90506127056060830184611cb4565b95945050505050565b60008060008060008060c0878903121561272b5761272a6119d4565b5b600087013567ffffffffffffffff811115612749576127486119d9565b5b61275589828a01611c22565b965050602061276689828a01612216565b955050604061277789828a01612216565b945050606061278889828a01612216565b935050608061279989828a01612216565b92505060a06127aa89828a01612216565b9150509295509295509295565b7f4e487b7100000000000000000000000000000000000000000000000000000000600052602260045260246000fd5b600060028204905060018216806127fe57607f821691505b602082108103612811576128106127b7565b5b50919050565b600081905092915050565b600061282d82611a69565b6128378185612817565b9350612847818560208601611a85565b80840191505092915050565b600061285f8284612822565b915081905092915050565b7f5573657220646f6573206e6f742065786973742e000000000000000000000000600082015250565b60006128a0601483611a74565b91506128ab8261286a565b602082019050919050565b600060208201905081810360008301526128cf81612893565b9050919050565b7f5573657220616c7265616479206578697374732e000000000000000000000000600082015250565b600061290c601483611a74565b9150612917826128d6565b602082019050919050565b6000602082019050818103600083015261293b816128ff565b9050919050565b60008190508160005260206000209050919050565b60006020601f8301049050919050565b600082821b905092915050565b6000600883026129a47fffffffffffffffffffffffffffffffffffffffffffffffffffffffffffffffff82612967565b6129ae8683612967565b95508019841693508086168417925050509392505050565b6000819050919050565b6000819050919050565b60006129f56129f06129eb846129c6565b6129d0565b6129c6565b9050919050565b6000819050919050565b612a0f836129da565b612a23612a1b826129fc565b848454612974565b825550505050565b600090565b612a38612a2b565b612a43818484612a06565b505050565b5b81811015612a6757612a5c600082612a30565b600181019050612a49565b5050565b601f821115612aac57612a7d81612942565b612a8684612957565b81016020851015612a95578190505b612aa9612aa185612957565b830182612a48565b50505b505050565b600082821c905092915050565b6000612acf60001984600802612ab1565b1980831691505092915050565b6000612ae88383612abe565b9150826002028217905092915050565b612b0182611a69565b67ffffffffffffffff811115612b1a57612b19611b25565b5b612b2482546127e6565b612b2f828285612a6b565b600060209050601f831160018114612b625760008415612b50578287015190505b612b5a8582612adc565b865550612bc2565b601f198416612b7086612942565b60005b82811015612b9857848901518255600182019150602085019450602081019050612b73565b86831015612bb55784890151612bb1601f891682612abe565b8355505b6001600288020188555050505b505050505050565b7f5573657220646f6573206e6f742065786974732e000000000000000000000000600082015250565b6000612c00601483611a74565b9150612c0b82612bca565b602082019050919050565b60006020820190508181036000830152612c2f81612bf3565b905091905056fea2646970667358221220e55a802cab8cf01724aaab94bf98dbde1c0cec11cde719ab7138ad84fa1e88f864736f6c63430008180033",
  "linkReferences": {},
  "deployedLinkReferences": {}
}